:020000041000EA
:10000000100B0020010200103D28001025220010D6
:10001000BD220010371A0010DD3100100000000072
:10002000000000000000000000000000932E0010FF
:100030003D1E001000000000152E0010952E00102F
:10004000292200103F280010891B0010E131001008
:10005000CF210010CD2100108D2E00108F2E00100A
:100060000000000000000000000000000000000090
:100070007F310010912E0010272200103916001039
:1000800049160010B5160010B7160010B91600106A
:10009000BB160010BD160010BF160010C1160010D0
:1000A000C31600103B1600103D1600103F1600103E
:1000B000411600104316001045160010C51600101A
:1000C000C7160010C9160010CB160010CD16001070
:1000D000CF160010000000000000000029020010F0
:1000E000452800101B2900101F290010232900108B
:1000F0002729001000000000000000004128001027
:1001000043280010192900101D2900102129001072
:10011000252900100000000000000000711E0010E2
:10012000A12F0010AD2F00107D310010811C001098
:10013000351A001000F002F800F052F80AA090E81A
:10014000000C82448344AAF10107DA4501D100F092
:1001500047F8AFF2090EBAE80F0013F0010F18BF0D
:10016000FB1A43F001031847E83500000836000089
:10017000103A24BF78C878C1FAD8520724BF30C8D3
:1001800030C144BF04680C607047000000230024A5
:1001900000250026103A28BF78C1FBD8520728BF97
:1001A00030C148BF0B607047662903F07182642933
:1001B00000F02881782900F06181632900F0CF8464
:1001C000002070471FB503F05EFA00F0E7FC040062
:1001D0000020002103F092F8E0601FBD10B510BDB3
:1001E00000F0F4FD1146FFF7EDFF03F06BF800F0AF
:1001F00012FE03B4FFF7F2FF03BC03F04EF8000059
:100200000D480E490860DFF838D00E488047DFF807
:1002100030D00D480047FEE7FEE7FEE7FEE7FEE7C9
:10022000FEE7FEE7FEE7FEE7FEE7000007480849B5
:10023000084A094B704700000000001008ED00E07C
:10024000100B0020812F001035010010100300203A
:10025000100B0020100700201007002053EA020CAA
:1002600000F069802DE9F04B4FF00006002B1FBF16
:10027000B3FA83F503FA05F424FA05F65E4012BFDB
:100280001643B2FA82F502FA05F4C5F120051EBF45
:1002900022FA05FC44EA0C04203556EA044C4FEAE5
:1002A000144418BF641C4FF000084FF0000990423E
:1002B00071EB030C39D3002919BFB1FA81F701FAA8
:1002C00007F6B0FA80F700FA07F6C7F120071EBF5D
:1002D00020FA07FC46EA0C062037B6FBF4FCA7EB35
:1002E0000507103F07F01F0BCBF120060CFA0BFBA4
:1002F0002CFA06F644BFB3460026202FA4BF5E4664
:100300004FF0000B5BEA060C08BF4FF0010B19EB36
:100310000B09ABFB027C48EB0608C01B06FB02CCBA
:100320000BFB03CC71EB0C01C1E70B4602464146C7
:100330004846BDE8F08B13B54FF000004FF00001C8
:10034000AFF30080BDE81C40704700000FB40449C3
:1003500010B503AA029800F00FFC10BC5DF814FB66
:100360002800002070B5044685690068C10601D5E3
:10037000302600E02026C00707D070BDD4E9012157
:1003800030469047206A401C20626D1EF6D570BD35
:1003900070B5044685690078C00707D170BDD4E9FF
:1003A000012120209047206A401C20626D1EF6D556
:1003B00070BD70B50C460546012A05D02878800628
:1003C00000D5EA69002302E0012305E05B1C9342AB
:1003D00002D2E05C0028F9D1A869E618C01AA86129
:1003E000286A184428622846FFF7BCFF04E0D5E9D4
:1003F000012114F8010B9047B442F8D32846FFF7C7
:10040000C7FF70BD2DE9F04106460024106875292C
:10041000314616A510D0AFF30080002802DA404222
:1004200013A507E031688A0701D512A502E0490744
:1004300004D511A5012401E0AFF3008000210A22B8
:1004400006F1240709E0B0FBF2FCB0FBF2F302FB7B
:100450001C00303078541846491C0028F3D123463C
:100460002A463046BDE8F04100F007B90000000020
:100470002D0000002B0000002000000070B5044695
:100480000D4621461068AFF300802188090502D58A
:100490000F4A7A4402E00E4A7A440E32002104F1F7
:1004A000240305E000F00F060009965D5E54491C28
:1004B0000028F7D120780023000704D5702D02D042
:1004C00009B1022311322046BDE8704000F0D5B8D2
:1004D000FE3100002DE9F0474FF0000A894604463E
:1004E000C0F820A02046E1688847002876D025285B
:1004F00006D0D4E901219047206A401C2062F1E730
:10050000E168204600258847C4F81CA0064600275D
:10051000C4F818A02A2E09D0304602F0B7FE38B32E
:1005200004EB8708303EC8F8186019E059F8041B3E
:10053000204604EB87029161E1688847012F064657
:1005400018D1E069002820DA25F020051DE0D8F850
:10055000180000EB800006EB40003038C8F81800A7
:100560002046E1688847064602F090FE0028EED15A
:10057000012F0AD02E2E08D12046E16888477F1C23
:100580000646022F45F02005C4DBA069002803DAE7
:10059000404245F00105A061E80701D025F01005B3
:1005A000B6B1A6F14100192802D8203645F40065FD
:1005B0004A463146204625604D46FFF7F5FD58B1C5
:1005C000012806D0ED1D25F0070000F1080989E794
:1005D00004E005F1040985E730468AE7206ABDE8B2
:1005E000F0874FF000020429C0F0128010F0030CD5
:1005F00000F01B80CCF1040CBCF1020F18BF00F816
:10060000012BA8BF20F8022BA1EB0C0100F00DB8C4
:100610005FEAC17C24BF00F8012B00F8012B48BF22
:1006200000F8012B70474FF0000200B513469446C6
:100630009646203922BFA0E80C50A0E80C50B1F13A
:100640002001BFF4F7AF090728BFA0E80C5048BF4E
:100650000CC05DF804EB890028BF40F8042B08BFEC
:10066000704748BF20F8022B11F0804F18BF00F8E8
:10067000012B70477047704770472DE9F0470D46D2
:1006800099469246044600F124080168880604D57C
:10069000E06921F01001216000E00120A84201DDA5
:1006A000471B00E00027A1697A1902EB0900081A2C
:1006B000A0612078C00602D42046FFF753FE002632
:1006C00008E0D4E901211AF806009047206A401C8E
:1006D000761C20624E45F4DB2078C0060AD5204601
:1006E000FFF740FE06E0D4E9012130209047206A60
:1006F000401C2062381EA7F10107F4DC07E0D4E9B2
:10070000012118F805009047206A401C2062281E2D
:10071000A5F10105F3DC2046FFF73AFE207800063C
:1007200002D50220BDE8F0870120FBE770472DE9E4
:10073000FF4F0C461E464FF0FF378BB0D2E9000149
:10074000DDF860800A908A46C1F30A5505B93D4636
:10075000002108464FF00000BAF1000F00F44000FD
:1007600005DA00EB80004FF4400101EA50004FEA47
:100770009059B9F1010F00DDB9460A9850EA4A00D4
:100780000ED044F61050A5F2FF3545432F14B8F1B2
:10079000000F1ED07542291E1EDDC9F100021CE0AB
:1007A000B8F1010F4FF0000001D0302103E0F24317
:1007B00005E02154401CB042FBDB30460022002102
:1007C00021540B99C1F80880C1E900200FB0BDE8A1
:1007D000F08FBD1B6D1CDEE74A4600DA694206A8B1
:1007E00000F07EFA06AB93E8070003AB83E807004E
:1007F00050460A9900F058FB8DE80700A0F500501C
:100800001F3800900398002D0ADD42F21F014A466E
:100810000844002303A90390684600F0C1FD09E0E5
:10082000A0F500504A461F38002303A903906846EC
:1008300000F0CBFD8DE807000004000C03D04FF062
:10084000FF30410800E01046B8F1000F03D000224D
:10085000009215461EE0751E05D400F0A3F9303253
:1008600062556D1EF9D5B3460122084302D000221D
:100870007F1C04E02078302801D100227F1E002A4E
:10088000099784D01DE0112D07DA00F08BF9303282
:1008900062556D1C50EA0102F5D1084302D0009860
:1008A000C8B10EE00021681E05E0235C625C635461
:1008B0002254401E491C8142F7DBAB46A81B401E58
:1008C0000990002004F80B000B98099AC0F80880E2
:1008D000C0E9002B7AE711264FF0000857E72DE911
:1008E000F04F88460446D21D22F0070191B0D1E9AD
:1008F0000001CDE90A0102F0B1FC02460B98C00FDD
:1009000001D02D2007E02068810701D52B2002E0CF
:10091000202101EAC000032A099001D0072A05DB43
:1009200003464146204600F09BF90BE12078800603
:1009300001D5E06900E00620B8F1650F814606D0D8
:10094000B8F1660F18D0B8F1670F70D131E0002010
:10095000B9F1110F009001DB112301E009F101034E
:100960000AAA01A90CA8FFF7E2FEDDE90C70002637
:1009700009F10105834647E001204B4600904FF006
:1009800000470AAA01A90CA8FFF7D1FEDDE90DB0C6
:100990000C995D46002610B909F101000D18B9EB5C
:1009A000050003D4C0F1FF3609F10105A5EB0900EC
:1009B0002BE0B9F1010F01DA4FF001090020B9F184
:1009C000110F0090484601DD112300E003460AAAFA
:1009D00001A90CA8FFF7ABFEDDE90C704D4600261F
:1009E0008346207800070AD4AB4500DA5D4601A8AB
:1009F000012D04DD411911F8011C302907D04F45A4
:100A000002DA17F1040F04DA012082460FE06D1EAE
:100A1000EEE7002F02DCED1B3E4403E0781CA84209
:100A200000DD7D1CB81B00F1010A4FF00047207863
:100A3000000703D4AA4501DB4FF0FF3A0021B7F1CC
:100A4000004F0DF143088DF8431024D002202B23D2
:100A5000002F01DA7F422D230A21021EA0F101009E
:100A600000DC5FB197FBF1FC97FBF1F201FB1C7C12
:100A700017460CF1300C08F801CDEEE7A8F10100A3
:100A800003702188090501D5452100E06521A0F109
:100A9000010800F8011C09980FA9A1EB0807FF1D28
:100AA00000B10120411901EBEA70A1693844081A2C
:100AB000401EA0612078C00602D42046FFF752FCF9
:100AC000099828B1D4E901219047206A401C20628E
:100AD0002078C00622D52046FFF744FC1EE0002EF9
:100AE00004DBB34502DD01A8805D00E03020D4E9DD
:100AF00001219047206A401C2062761CAAF1010067
:100B00005FEA000A0AD100F049F8C0680168405C59
:100B1000D4E901219047206A401C2062281EA5F1DB
:100B20000105DCDC07E0D4E9012118F8010B90474E
:100B3000206A401C2062381EA7F10107F3DC204622
:100B4000FFF726FC032011B041E610B5436913B14D
:100B5000AFF3008001E0FFF72CFC012010BD1278FC
:100B600000F124010A7000224A700122EDE71168A9
:100B70004FF0FF32E9E70000074B70B50D467B44AC
:100B800000F05BF80446284602F088FB10B14FF0F5
:100B9000FF3070BD204670BD21270000004870471F
:100BA000D002002030B5B0F10A024FEA900E71F188
:100BB00000034EEA817EB0EB0E0061EB91014FEA3B
:100BC000101E4EEA017E10EB0E0041EB11114FEAB0
:100BD000102E4EEA016E10EB0E0041EB11214FEA90
:100BE000104E4EEA014E10EB0E0041EB1141401841
:100BF00041F100014FEAD00040EA41704FEAD101D3
:100C000010EB80054FEA810444EA907444EB010440
:100C10006D1944EB0404521BA3414FF0000348BF7D
:100C20000A3200D530BD401C41F1000130BD00004A
:100C300001694A1C02610878704700B58FB0CDE9A0
:100C400001310021059105497944CDE90310114690
:100C50006846FFF73FFC0FB000BD0000E5FFFFFF57
:100C60002DE9F0411F46044603260168072A01F4D6
:100C7000006004DB08B116A505E016A503E008B185
:100C800015A500E015A521F010002060A069C01E88
:100C9000A0610FB1401EA0612046FFF763FB4FB17A
:100CA000D4E9012138469047206A401C2062C01CCC
:100CB000206206E0206AFAE7D4E9012115F8010B69
:100CC0009047761EF8D22046FFF762FBBDE8F08120
:100CD0004E414E006E616E00494E4600696E6600E0
:100CE0002DE9F047814616468AB0354878440DC84C
:100CF0008DE80D0032487844801C03AC0DC884E8B0
:100D00000D0041F69B300844372190FBF1F290FB37
:100D1000F1F5A5F1800501FB12041B3C02D56442EC
:100D2000012000E00020DFF898A080460027FA4468
:100D3000AAF1BE0A0EE0E0070AD03246684607EB89
:100D4000470101230AEB810100F03FFB8DE807001A
:100D500064107F1C002CEED1194F7F44AE3F19E088
:100D6000E80715D007EB04100DF1180A90E80E0003
:100D70008AE80E00C068F04201D198190890324606
:100D8000012306A903A800F020FB03AB83E80700BA
:100D90006D10641C002DE3D14FF00103324669460B
:100DA000B8F1000F03A802D000F0FAFA01E000F059
:100DB0000CFBC9E90001C9F808200AB0BDE8F087BA
:100DC000482A000000487047B00200207546FFF72F
:100DD000F9FFAE4605006946534620F007008546F8
:100DE00018B020B5FFF722FABDE820404FF000060A
:100DF0004FF000074FF000084FF0000B21F0070103
:100E0000AC46ACE8C009ACE8C009ACE8C009ACE845
:100E1000C0098D46704710B50446AFF300802046E8
:100E2000BDE81040FFF7E5B94FF0013C50F8042B46
:100E300051F8043B9A4221D1A2EB0C03934313EAED
:100E4000CC1317D150F8042B51F8043B9A4215D11A
:100E5000A2EB0C03934313EACC130BD150F8042BF1
:100E600051F8043B9A4209D1A2EB0C03934313EAD5
:100E7000CC13DBD04FF00000704700BFD01A01BA8E
:100E8000B1FA81F101F0180122FA01F0CB40C1F171
:100E90002001DBB2C0B2C01A2CFA01F3D11A91437F
:100EA00011EAC311E6D170475FEA400C08BF91F028
:100EB000000F4FEA8C234FEAC12243EA51514FEA17
:100EC0001C5018BF00F5F0404FEA300018BF41F049
:100ED00000415FEA6C5C00F02980BCF1FF3F08BF75
:100EE00040F080407047130C06BF12044FF0100C06
:100EF0004FF0000C130E04BF12020CF1080C130F7C
:100F000004BF12010CF1040C930F04BF92000CF10A
:100F1000020CD30F04BF52000CF1010C11464FF02C
:100F20000002A0F11F00A0EB0C00704711F0004F71
:100F300008BF704731F000413FF4D5AF0B0C06BF3E
:100F400009044FF0100C4FF0000C0B0E04BF090207
:100F50000CF1080C0B0F04BF09010CF1040C8B0FF2
:100F600004BF89000CF1020CCB0F04BF49000CF147
:100F7000010CCCF12003A0EB0C0022FA03F302FADF
:100F80000CF241EA030100F10100704720F07F4CB0
:100F900080EA030023F07F47ACEB070303F57C53A3
:100FA00000F0004003F1FF032DE980494FEA154BA3
:100FB00009B44FEA144325EA0B4E24EA03480FF222
:100FC000042606EB132749083E785FEA320203FB4A
:100FD0000667C7F5000707FB06F64FEA54374FEAE6
:100FE000D64606F1020607FB066CCCF1005C4FEA20
:100FF0001C472CEA074C07FB06F40CFB06F504EB38
:1010000015464FEA961634BF00204FF000404FEAD5
:10101000D13706FB07FC4FEA1C4C0CFB0BF7D21B2D
:1010200003FB0CF761EB07010CFB0EF7B0EB07407D
:1010300072EB17420CFB08F734BFA2EB0742B2EB8E
:10104000074261EB17414FEA0C444FEA910706FB58
:1010500007FC4FEA1C4C0CFB0BF7B0EBC74072EBE4
:10106000573203FB0CF734BFA2EBC742B2EBC742C7
:1010700061EB57310CFB0EF7B0EBC70072EB577208
:101080000CFB08F734BFA2EBC702B2EBC70261EB5F
:101090005771039F4FEA816141EA921104EBCC043E
:1010A0004FEAD1374FEA826206FB07FC42EA901210
:1010B0004FEA80604FEA1C4C0CFB0BF7D21B03FB82
:1010C0000CF761EB07010CFB0EF7B0EB074072EB7E
:1010D00017420CFB08F734BFA2EB0742B2EB074202
:1010E00061EB17414FEA8C554FEA910704EB9C24C2
:1010F00006FB07FC4FEA1C4C0CFB0BF7B0EBC740A0
:1011000072EB573203FB0CF734BFA2EBC742B2EBD2
:10111000C74261EB57310CFB0EF7B0EBC70072EB27
:1011200057720CFB08F734BFA2EBC702B2EBC70241
:1011300061EB577115EB4C254FEA816141EA921141
:101140004FEA82624FEAD13742EA901206FB07FC6F
:1011500044F100044FEA80604FEA1C4C0CFB0BF793
:10116000D21B03FB0CF761EB07010CFB0EF7B0EB96
:10117000074072EB17420CFB08F734BFA2EB0742A3
:10118000B2EB074261EB174115EB1C154FEA8131B9
:1011900041EA92414FEA823242EA90424FEA80307D
:1011A0004FEA0C7644F1000448EA03434EEA0B4848
:1011B0004FF0000EB2EB080C71EB030724BF624640
:1011C00039464EEB0E0E4FF0000B001852414941CC
:1011D0004BEB0B0BB2EB080C71EB03077BF1000B35
:1011E00024BF624639464EEB0E0E4FF0000B00183E
:1011F000524149414BEB0B0BB2EB080C71EB03076F
:101200007BF1000B24BF624639464EEB0E0E51EACD
:10121000020718BF46F0010616EB0E7655F10002E4
:1012200054F1000103D5BDE88901BDE80088BDE89F
:101230008901BDE80048B619524141EB0101A3F113
:101240000103704780807F7E7D7C7B7A797877761A
:1012500076757473727171706F6E6E6D6C6C6B6A93
:101260006A69686867666665646463636261616031
:10127000605F5F5E5E5D5D5C5C5B5B5A5A595958AE
:101280005857575656555555545453535252525118
:10129000515050504F4F4F4E4E4D4D4D4C4C4C4B6E
:1012A0004B4B4A4A4A4949494848484747474746B5
:1012B00046464545454444444443434343424242F1
:1012C00042414141002B9C4630D477002BD01CB5C5
:1012D0004FEA370703B44FF010004FF01001BAF196
:1012E000000F06D0BCF1000FDCBF40F0080040F05A
:1012F00008014FF000000FBCBDE810400BF1010BDE
:10130000BBF1010F08BF5FEA170722BF12F101020C
:1013100011F101014FF0004143F1000300F00040E2
:1013200043EA00007047F9D35708D0E746EA06467B
:1013300013F1400F4FEA16461FDD13F1200FDFBFF8
:1013400016430A46002120335B42BED0C3F120077A
:1013500046EA064602FA07F74FEA164646EA070645
:10136000C3F1200722FA03F201FA07F721FA03F189
:101370004FF0000342EA0702A7E746EA020646EA00
:1013800006464FEA164646EA0106BCBF46EA06464E
:10139000360C4FF000034FF000024FF0000194E7CD
:1013A0002DE9804C9A46934670B491E8380007C8FE
:1013B00031EA400C48BF34EA430C03D5FFF7E6FDA1
:1013C000FFF780FFF0BCBDE8008C2DE9804C9A4609
:1013D000934670B491E8380007C810F0804F08BFFA
:1013E00013F0804F03D100F005F8FFF76BFFF0BC5E
:1013F000BDE8008C20F07F4780EA030023F07F4C9B
:1014000007EB0C03A3F57C5300F00040A3F1FE03AF
:1014100092F0000F00F0B38095F0000F00F077809D
:101420002DE901494FEA11404FEA144621EA0048EC
:1014300000FB06FC24EA064708FB06F607FB08F853
:1014400000FB07F718EB06484CEB164C4FEA124B23
:1014500018EB07484FEA15464CEB174022EA0B4EB3
:101460000BFB06FC25EA06470EFB06F607FB0EFE05
:101470000BFB07F71EEB064E4CEB164C4FF000062D
:101480001EEB074E4CEB174B18EB0B0840F100001E
:1014900018EB0E0B58EB000840F100008F1A4FF0CC
:1014A00000013CBFC943661B14BFB5EB040C00210F
:1014B0003CBFC943F61B4FEA17444EEA8E0E27EA9B
:1014C00004454FEA1C4704FB07622CEA074C05FB66
:1014D00007F70CFB05F604FB0CFC16EB074642EB8A
:1014E000174216EB0C4642EB1C421BEB060658EB70
:1014F0000202414146EA9E0601D5BDE80189B619BE
:10150000524141EB0101A3F10103BDE801894FEA1A
:1015100014454FEA114724EA054621EA074C05FB2A
:1015200007F406FB07F70CFB06F105FB0CFC11EBBF
:10153000074144EB17444FEA124711EB0C4144EBCF
:101540001C4422EA074C05FB07F206FB07F70CFBDD
:1015500006F605FB0CFC16EB074642EB174216EBB2
:101560000C4642EB1C456A1854F1000148BF704715
:10157000B619524141EB0101A3F10103704795F007
:10158000000F37D04FEA11424FEA144721EA0246D2
:1015900024EA074C02FB07F106FB07F70CFB06F4F5
:1015A00002FB0CFC14EB074441EB17414FEA1547D3
:1015B00014EB0C4441EB1C4125EA074C02FB07F5F8
:1015C00006FB07F70CFB06F602FB0CFC16EB0746C6
:1015D00045EB174516EB0C4645EB1C42121951F131
:1015E000000148BF7047B619524141EB0101A3F118
:1015F000010370474FEA14454FEA114724EA0546B4
:1016000021EA074C05FB07F106FB07F70CFB06F286
:101610004FF0000605FB0CFC12EB074241EB1741B3
:1016200012EB0C4251EB1C4148BF7047921841EB42
:101630000101A3F10103704770477047704770477D
:10164000704770477047000014480168002902DAAB
:101650000068404200E00068114988801148026833
:10166000002A02DA0068404200E00068C8800E48A4
:101670000268002A02DA0068404200E00068488000
:101680000A480268002A02DA0068404200E0006866
:10169000088107490220086008607047348D0040C7
:1016A00048000020388D0040408D0040488D0040AB
:1016B000048C004070477047704770477047704710
:1016C0007047704770477047704770477047704762
:1016D00010B51148016841F002010160082206219D
:1016E000012000F01FF808220721022000F01AF85C
:1016F00004210822084600F015F8082201210620DE
:1017000000F010F80548016841F0604101600449AB
:101710004FF48030086010BD188D00403C8C0040B4
:1017200000E100E070B505460C46164600F04AF8A8
:1017300032462146284600F087F896221146284670
:1017400000F048F9284600F0B7F80748026801237E
:10175000AB401A430260102C04D22046BDE8704012
:1017600000F036BD70BD0000108C004010280AD279
:10177000DFE800F0080A0C0E10121416181A1C1ECE
:1017800020222426842070479420704785207047AB
:1017900095207047A5207047B5207047C520704739
:1017A000D520704786207047962070478720704765
:1017B00097207047A7207047B7207047C720704711
:1017C000D720704738B5402000F0B0F919480168BB
:1017D00041F0010101601848184CC82201684FEA25
:1017E000441CB1FBF4F050438B00B3FBFCF2B0FBA4
:1017F000F2F000900098421E0092FBD2104802685E
:1018000042F001020260B1FBF4F0C8214843B3FB8F
:10181000FCF1B0FBF1F000900098411E0091FBD26A
:101820000848016841F001010160016841F00201CE
:10183000016038BD1C8D00401C00002040420F009C
:10184000208D0040188D004070B5064608460023E4
:1018500000240025FFF78AFF0109083906291BD259
:10186000DFE801F003070B0F1317012300F00F044B
:1018700012E0012300F00F050EE0022300F00F0438
:101880000AE0022300F00F0506E0032300F00F0436
:1018900002E0032300F00F055807B10040EA0260A0
:1018A00001F1804140EA455001F5004140EA8440A1
:1018B000C1F8380C70BD00002DE9F003810001F182
:1018C000804101F50041D1F8382C404B4FEA527865
:1018D000821C401C92008000DFF8F4C01C1D261DF5
:1018E0001F1F02F1804200F180400CF1040502F557
:1018F000004200F50040B8F1080F0CD2DFE808F014
:101900000B040E1720303F4F1868C1F8B80CDCF8F4
:101910000000C1F8780CBDE8F00370472068C1F8FA
:10192000B80C2868C1F8780CBDE8F003704730683F
:10193000C1F8B80C3868C1F8780CBDE8F0037047FE
:101940001A68C1F8B82CDCF80020C1F8782C21689E
:10195000C0F8B81C2968C0F8781CBDE8F0037047CF
:101960002168C0F8B81C2968C0F8781C3068C2F833
:10197000B80C3868C2F8780CBDE8F00370471868F6
:10198000C1F8B80CDCF80000C1F8780C3068C2F877
:10199000B80C3868C2F8780CBDE8F00370471B68D3
:1019A000C1F8B83CDCF80030C1F8783C2168C0F8D8
:1019B000B81C2968C0F8781C3068C2F8B80C3868C0
:1019C000C2F8780CBDE8F00370470000048D0040B9
:1019D000F88C004070B505460C461646402000F0D5
:1019E000B9F8134A42F21073B0FBF2F16143B1FB54
:1019F000F3F1B0FBF2F07043B0FBF3F0401CFF29B1
:101A000000D3FF217F2800D37F20AA0002F180426B
:101A100002F50042D2F8383C61F30703C2F8383CC3
:101A2000D2F8381C60F30E21C2F8381C70BD0000DB
:101A3000A0860100704770474FF47A72D106D1F842
:101A4000083243F00103C1F80832D1F8003213F034
:101A5000010F08D1521E01D200207047D1F8003288
:101A600013F0010FF6D0D1F85C2222F4C062C1F865
:101A70005C22D1F8382222F4C062C1F83822042353
:101A8000274AB2FBF0F2521EDFF898C0B0FBFCFC14
:101A9000501C0CFB00F080044009D1F818C263F31D
:101AA0001A6CC1F818C2D1F8183262F3DE63C1F8BB
:101AB0001832D1F8182260F31702C1F8182200EB8F
:101AC0004000D1F814224001C2F30212C2F10E020A
:101AD0004FF4C8035A43B0FBF2F2D1F8140262F398
:101AE0004D20C1F81402D1F8140220F08000C1F892
:101AF0001402D1F8140240F00300C1F814020A489D
:101B0000D1F8002212F0080F08D1401E01D20020A7
:101B10007047D1F8002212F0080FF6D0012070476C
:101B20000046C32340420F00A08601006C2808D065
:101B300000F18040D0F8001241F48071C0F800122A
:101B400070470348016841F480310160704700002C
:101B50006C02004000B500F007F802490968B1FBCB
:101B6000F0F000BD1C0000206C2806D000F1804081
:101B7000D0F80002C0B2401C70470248006880B232
:101B8000F9E700006C0200407047000070B52E4974
:101B900051F8204008390D5C091D0E5C2046FFF706
:101BA0004BFF2A48711E826A61F307028262026B50
:101BB00061F307020263426B61F30F024263826BBF
:101BC00061F3070282634268691E61F307024260A3
:101BD000B4FBF5F21E4B1A60B4FBF6FCC3F804C06C
:101BE0001C4B1A60026842F4C0620260426A42F40E
:101BF000C0624262C26B42F4C062C263026C42F4D1
:101C0000C0620264826861F307028260C26861F3A5
:101C10000702C260026961F307020261426961F36F
:101C200007024261826961F307028261C26961F35E
:101C30000702C261C26B61F30702C263026C61F307
:101C40000702026470BD0000380000203802004026
:101C5000700200201C000020491E6C2808D000F1F2
:101C60008040D0F8002261F30702C0F800227047DC
:101C70000248026861F30F02026070476C02004084
:101C8000704700002DE9F05FDFF86081DFF86091B8
:101C9000B8F80000B9F9021010F0010F1ED0B1F52C
:101CA000C87F03DC20F00100A8F80000B8F80200AB
:101CB000DFF840A10525504F504C4FF0000B022695
:101CC000D8B1B9F90200B0F5C87F01DCA8F802B0BC
:101CD000B8F8000010F0040F34D04EE0B1F5CD7F1D
:101CE000E4DB40F00100A8F8000000F05DFA444891
:101CF000B7EE080A80ED0C0AD8E7B9F90200B0F592
:101D0000E17F1CDB9AF80200401CC0B28AF8020096
:101D10000828DDD30120A8F80200C4F86C513E70F9
:101D200098F8000000F0010136A0FEF70FFB98F8CC
:101D30000000C0F3001138A0FEF708FBC8E78AF8DE
:101D400002B0C5E7B9F90410172904DA394AD9F8FD
:101D5000081091420FDB9AF80110491CC9B28AF8A9
:101D60000110082909D340F00400A8F80000C4F8C5
:101D70006C513E7001E08AF801B0B8F800002E49BD
:101D800010F0100F0AD10A6812F4807F06D140F0DB
:101D90001000A8F80000C4F86C513E70B8F80000BC
:101DA00010F0200F0AD1096811F0040F06D140F09D
:101DB0002000A8F80000C4F86C513E70D4F8A401CB
:101DC00010F0010F0AD0B8F8000040F08000A8F829
:101DD0000000C4F86C513E70BDE8F09FB8F80000F8
:101DE00020F08000A8F80000BDE8F09F040000206B
:101DF000540000200000002020000020009000403F
:101E000078010020546865204F565020203D3D2029
:101E10002564200A2000000054686520486172642F
:101E2000776172654F5620203D3D202564200A20B1
:101E3000000000000000B841003000407047000082
:101E40000848094A00684FEA421C8300B0FBF2F1DF
:101E5000B3FBFCF3B1FBF3F304490B60B0FBF2F00E
:101E6000486070477002002040420F000C000020C4
:101E7000704700002DE9F05F024600235B48E8212F
:101E8000FEF7ECF95A49B1FBF0F2511C4143594BB2
:101E9000B3FBF1F303F1010C01FB0CFC4FF47A747A
:101EA000BCFBF4FC544EB6FBFCF4544DB5FBFCF506
:101EB0005B0543EA023242EA84122A43DFF840A17A
:101EC000BAFBF1F5B6FBF1F642F2107BBBFBF0F486
:101ED00048F6B803B3FBF0F31B1B03B15B1E2D06E2
:101EE00045EA864545EA83132343464CB4FBF1F5A6
:101EF00043F69824B4FBF0F6DFF80C91B9FBF1F748
:101F0000DFF80881B8FBF1F8B9FBFCFC2D0645EAC7
:101F1000864545EA073545EA881545EA0C0CB4FBC9
:101F2000F0F5B4FBF0F6DFF8E8E0BEFBF0F7B4FB49
:101F3000F0F8DFF8E090B9FBF1F92D0645EA8645A7
:101F400045EA073545EA881545EA0905B4FBF0F688
:101F5000BAFBF1F74FEA6E08B8FBF0F8B4FBF0F407
:101F6000DFF8B490B9FBF1F94FEA096949EA87470C
:101F700047EA063646EA88163443BAFBF1F1BBFB62
:101F8000F0F6BEFBF0F0090341EA86110843234E48
:101F90003360371D3A6007F10408C8F800C008F143
:101FA0000409C9F8005009F1040ACAF800400AF10E
:101FB0000401086036689E4214D13B68934211D1F7
:101FC000D8F8002062450DD1D9F80020AA4209D1E5
:101FD000DAF80020A24205D10968814202D101202D
:101FE000BDE8F09F0020BDE8F09F00000010A5D4E0
:101FF00020A1070080A4BF0700093D0000D43000E5
:1020000080969800404B4C0000127A00002D310160
:10201000400D0300A025260080F0FA02148800403D
:102020002DE9F041DFF864C1574A0123BCF90200F1
:10203000DCED040ADFF858C11178564C9CED030A18
:102040000025002911D00526534F012964D002290B
:102050002AD12570C7F86C6150480088002823D128
:102060001570BDE8F04100F09FB82570484F667DBF
:102070004B4997ED051ACEB1DCED091AB4EEE10A31
:10208000F1EE10FA10DDB4EEC10AF1EE10FA0BD247
:1020900000EE100AB8EEC00AB4EEE00AF1EE10FA53
:1020A00002DD13700B706575BDE8F081384F267D39
:1020B000D7ED061ACEB1B4EEE10AF1EE10FAF3DD77
:1020C0009CED0A1AB4EEC10AF1EE10FAECD200EE61
:1020D000100AB8EEC00AB4EEE00AF1EE10FAE3DD41
:1020E00013700B702575BDE8F081B4EEE10AF1EED6
:1020F00010FAF8DDB4EEC10AF1EE10FAF3D200EEF8
:10210000100AB8EEC00AB4EEE00AF1EE10FAEADD09
:102110001370A371BDE8F081DCED071ADFF870C021
:102120002049B4EEE10A9CED081AF1EE10FA0DD345
:10213000B4EEC10AF1EE10FA08DC02EE100AB8EEB5
:10214000C22AB4EEE02AF1EE10FA1AD20888401C36
:1021500080B208802828DDD9B4EEC10AF1EE10FA69
:1021600001DD237505E0B4EEE10AF1EE10FA00D2CC
:1021700063751570C7F86C6100F04EFE2570BDE800
:10218000F0810D80BDE8F081200000205400002087
:102190002801002080020020009000400400002060
:1021A0000A0000202200002010B5D8210548FEF7C3
:1021B0003AFA1A210448FEF714FABDE8104000F07C
:1021C00077BD000078010020800200207047704732
:1021D0000F2809D8800000F18040D0F8001321F0CA
:1021E0000701491CC0F800137047800000F18040CF
:1021F000D0F8001321F00701C0F800137047012345
:1022000000F01F0203FA02F24009800000F1804052
:1022100000F54050002903D0012900D142657047E4
:102220000266704770477047704700001D48DFED39
:102230001E0AB0F9020000EE100A1C48B8EEC00AEF
:1022400020EE200A80ED080ADFED190A194920EE78
:10225000200ABDEEC00A10EE102A4A8090ED070A4F
:1022600020EE200ABDEEC00A10EE102A0A80D0ED42
:10227000090A9FED110A60EE800AFDEEE00A10EEF9
:10228000902A8A80D0ED0A0A20EE800ABDEEC00AAC
:1022900010EE100A00B200EE100AB8EEC00A81ED8E
:1022A000020A7047480000208513EA3978010020AF
:1022B00066E60D43540000202506ED4070470000FF
:1022C00010B582B04FF04020416911F0010F1AD0D3
:1022D00000680E4CC0B2207000F024F8012807D02E
:1022E000207801900A48016900910FC800F060F958
:1022F0002178722907D0522905D002B005A0BDE887
:102300001040FEF723B802B010BD00002C000020E2
:102310009C020020554152545F436D643D25630A81
:102320000000000010B549497028B1F90420B1F946
:1023300002100ED06F2811D0662814D05B2800F050
:102340007E80392800F07D80382800F07C800020D5
:1023500010BD3FA0FDF7FAFF012010BD3CA0FDF726
:10236000F5FF012010BD434C43A02188FDF7EEFF8F
:10237000207800F0010146A0FDF7E8FF2078C0F3C7
:10238000800148A0FDF7E2FF2078C0F3C0114AA009
:10239000FDF7DCFF2078C0F340114EA0FDF7D6FF1B
:1023A0002078C0F3001152A0FDF7D0FF574C6068B1
:1023B00001F0F8F841EC100B55A053EC102BFDF791
:1023C000C5FFA06801F0EEF841EC100B56A053ECED
:1023D000102BFDF7BBFF606901F0E4F841EC100B36
:1023E00057A053EC102BFDF7B1FFA06901F0DAF80C
:1023F00041EC100B58A053EC102BFDF7A7FFE06841
:1024000001F0D0F841EC100B59A053EC102BFDF764
:102410009DFF206901F0C6F841EC100B59A053EC68
:10242000102BFDF793FFE06901F0BCF841EC100BB5
:1024300059A053EC102BFDF789FF012010BD01209E
:1024400010BD012010BD012010BD0000540000206F
:10245000566F757420566F6C746167653D256456C0
:102460002C2049612043757272656E743D2564416C
:102470000A20000004000020546865204661756C45
:10248000745374617465206973202578200A0000F4
:10249000546865204F565020203D3D202564200A79
:1024A00020000000546865204F435020203D3D200F
:1024B0002564200A2000000054686520536F66746C
:1024C00077617265545A20203D3D202564200A2002
:1024D000000000005468652048617264776172658D
:1024E0004F4320203D3D202564200A2000000000AD
:1024F0005468652048617264776172654F56202088
:102500003D3D202564200A200000000050020020EC
:10251000546865206661756C7456726566206973CF
:10252000202533660A000000546865206661756CDA
:1025300074566F7574206973202533660A00000095
:10254000546865206661756C74447574796120699E
:1025500073202533660A0000546865206661756C37
:10256000744475747962206973202533660A00000B
:10257000546865206661756C744961206973202513
:1025800033660A00546865206661756C7449622080
:102590006973202533660A00546865206661756C8E
:1025A0007449726566206973202533660A0000004D
:1025B00070B5059C4D4D762C14D0692C1ED0612C25
:1025C00029D0622C29D02A2C29D02F2C2CD0742C45
:1025D0002FD0732C37D0712C37D0652C00F07B8036
:1025E00000F073B8E86B00F0DDFF41EC100B40A089
:1025F00053EC102BFDF7AAFE012070BDD5F890001A
:1026000000F0D0FF41EC100B3EA053EC102BFDF777
:102610009DFE012070BD012070BD012070BD3EA057
:10262000FDF794FE012070BD3EA0FDF78FFE012056
:1026300070BD40A0FDF78AFE4848018841F00401C2
:102640000180012070BD012070BD454E45A0B6F946
:102650000410FDF77BFEB06800F0A4FF41EC100B06
:1026600045A053EC102BFDF771FEB6F9021047A000
:10267000FDF76CFEB6F900104AA0FDF767FE4D4865
:1026800001784DA0FDF762FE5848C06800F08AFF4F
:1026900041EC100B56A053EC102BFDF757FED5F86C
:1026A000900000F07FFF41EC100B57A053EC102B73
:1026B000FDF74CFED5F8940000F074FF41EC100BD0
:1026C00056A053EC102BFDF741FE722C0AD0522C71
:1026D0000AD0002070BD56A0FDF738FE56490120F3
:1026E000487070BD012070BD012070BD78010020D0
:1026F0004E6F772074686520766C6F6F70203D2573
:1027000033660A004E6F772074686520696C6F6FBE
:1027100070203D2533660A005072696E7466204E43
:102720006F770A005072696E746620446973616243
:102730006C650A00546869732069732061207465B0
:102740007374202C20746865206F76702077696C14
:102750006C20626520736574000000000400002096
:102760005400002043757272656E744120206973B5
:10277000202564410A00000043757272656E744240
:102780002020697320253366410A0000566F757456
:1027900020566F6C74616765206973202564560A42
:1027A0000000000056494E20697320256456200A17
:1027B00000000000200000205468652073797374C5
:1027C000656D2069732025640A202C20302D3E6918
:1027D000646C65202C20312D3E6E6F726D616C2013
:1027E0002C20322D3E6661756C740A002801002091
:1027F00054686520524D5376616C7565206973206D
:102800002533660A00000000546865204475747919
:1028100061206973202533660A0000005468652032
:102820004475747962206973202533660A000000BC
:1028300072657365740A00002C00002070477047B1
:102840007047704770B52E492F4CB1F9080000EE63
:10285000100AF8EEC00A9FED2B0A60EE800AC4ED64
:10286000070A00EE900AA4F15005F8EEE00A60EEC7
:10287000800AC5ED040AB1F9040000EE900AF8EEF2
:10288000E00A60EE800AC4ED090AB1F9060000EE24
:10289000900AF8EEE00A20EE800A84ED0A0A1B484E
:1028A0001B4E0078012806D00520C6F86C010120D7
:1028B000C6F8F40170BD00F029F9164895ED030A39
:1028C00080ED000A94ED090A80ED030A94ED0A0AEE
:1028D00080ED040A94ED2B0A80ED050A94ED2C0A94
:1028E00080ED060A94ED080A80ED020A94ED0C0AC8
:1028F00080ED010A94ED1C0A80ED070AD7E700007D
:10290000480000208513EA397801002020000020CB
:102910000090004050020020704770477047704799
:10292000704770477047704710B500210846444C07
:1029300054F8FC2C61F3D13244F8FC2C54F8FC1C04
:1029400060F30E3144F8FC1C002211463D484369F7
:1029500062F3D1334361426961F30E32426140F266
:1029600082624EF6602100F07BF80021082000F022
:10297000A9F80021022000F0B7F80720E0670B203B
:10298000E0673148C4F89000C4F88C00D4F8D8004F
:1029900020F00F00401CC4F8D800D4F8DC0020F070
:1029A0000F00401CC4F8DC00D4F8D80040F0100040
:1029B000C4F8D800D4F8D80020F4F0702030C4F85F
:1029C000D800D4F8DC0020F4706000F58070C4F802
:1029D000DC00D4F8D80040F40070C4F8D8001B49DB
:1029E00008684FF6FF02104040F4407040F0FD7060
:1029F00040F08060086010201549087015493020AB
:102A000081F80004144940200870606840F001001B
:102A100060601248016821F00701491D01604168AA
:102A200021F00701491D4160E06D20F00300401CCA
:102A3000E065E06D20F00C00001DE06510BD0000B9
:102A40001091004000910040D2FF03000CED00E027
:102A500028E400E003E000E039E400E05003004037
:102A600070B504460E4615464420FFF75FF8442033
:102A7000FFF770F8B0FBF6F0400800216161A0613B
:102A8000606940F004006061606940F48C706061CE
:102A900001202062A06D40F06000A065206E40F42F
:102AA000C0602066206B20636167606F40F4BB707C
:102AB0006067C4F88450E567606940F48020606115
:102AC00070BD000070B504460D462046FFF78DFB33
:102AD00000212046FFF793FB024944EA8510086075
:102AE00070BD0000009F004070B504460D462046B2
:102AF000FFF77BFB00212046FFF781FB024944EAF8
:102B00008510086070BD0000049F00406048A0F17F
:102B1000500190ED120AD1ED030A80EE201A90EDDB
:102B2000070A21EE000A80ED1C0AD0ED090A30EEFA
:102B3000602A80ED1E2AD0ED0A0A70EE602AC0EDF0
:102B4000212AD0ED260A90ED020A90ED031AF0EE4C
:102B5000604A40EE020A90ED1F3A90ED044AD0ED33
:102B6000201A41EE030A44EE210AC0ED2B0AD0EDF3
:102B7000281AD0ED223AB0EE615A40EE221A90EDBA
:102B8000230A41EE231A44EE001AC0ED2C1A10EE6F
:102B9000901AB1F17E5F01DDF7EE000AC0ED2B0A5D
:102BA00010EE901A11F1814F01D9FFEE000AC0ED2D
:102BB0002B0A11EE901AB1F17E5F01DDF7EE001ADB
:102BC000C0ED2C1A11EE901A11F1814F01D9FFEED0
:102BD000001AC0ED2C1A10EE901AC0ED240AC0EDB8
:102BE000251AB0EE610A2B4B9FED2B4A994202DD6C
:102BF000B0EE441A01E0B0EE601A80ED241A11EE36
:102C0000102A2649DFED265A8A4201DAB0EE651A0B
:102C100080ED241A10EE102A9A4201DDB0EE440A2B
:102C200080ED250A10EE102A8A4201DAB0EE650A1C
:102C300080ED250A80ED203A80ED1F2AC0ED274A5D
:102C4000C0ED260AC0ED233AC0ED222A80ED295AB4
:102C5000C0ED281A134901208872487212480021D9
:102C60008163F7EE000A70EEC11A9FED101A61EE53
:102C7000811AFCEEE11A11EE901A016030EEC00AE2
:102C800020EE010ABCEEC00A10EE101A81607047F7
:102C9000780100203333733F3333733F0AD7A33BAC
:102CA0000000000080020020349100400040D04429
:102CB00070B53D4CB7EE000A84ED0C0A9FED3B0A5F
:102CC00084ED2E0A9FED3A0A84ED2F0A9FED390A12
:102CD00084ED300A9FED380A84ED2D0A9FED370A06
:102CE00084ED000A9FED360A84ED010A9FED350A56
:102CF00084ED020A9FED340A84ED030A9FED330A46
:102D000084ED040A3248006880B2A4F8CC0000F0D8
:102D100038FB9FED311B0D46064653EC112B00F09E
:102D200043FB00F001FBA4F8C40045EC106B9FEDE1
:102D30002C1B51EC100B53EC112B00F035FB00F069
:102D4000F3FAA4F8C6009FED280AA4F1500080ED24
:102D5000060A9FED260A80ED050A9FED250A80ED03
:102D60000B0A9FED240A80ED080A9FED230A80EDEF
:102D7000070A9FED220A80ED0A0A9FED210A80EDE5
:102D8000090A21489FED1F0A80ED040A1F48016AC5
:102D900041F00101016281151D4801604904016093
:102DA00070BD00000000000078010020CDCC2C4058
:102DB000F62824407B143E40713D0A4098895440D7
:102DC000CF0753C0092D503EC62B89BEE9C4B43D80
:102DD0001C91004000000000666666666666EE3F75
:102DE0007B14AE47E17A743F90BCA23EE77BE5409E
:102DF000A5F6CD3FBEB009417330823E1C89CE405E
:102E00009F02B33E731886435400002000700040B8
:102E100004E100E07047000010B5D8211548FDF727
:102E200002FC1A211448FDF7DCFB14480024C0F80A
:102E3000C040C0F8C440C0F8C840C0F8CC40C0F89A
:102E4000D040C0F8D440C0F8D840C0F8DC40C0F84A
:102E5000E040C0F8E440C0F8E840C0F8EC40FFF7BC
:102E600027FF0748047008489FED060A80ED030A13
:102E700010BD0000780100208002002068000020C2
:102E8000000000200000000028010020704770476B
:102E9000704770477047000010B52B4C29482060E0
:102EA0002A48FEF7E7FF002020600320FEF76EFEB1
:102EB0000A215020FEF7D0FE254C6421204600F068
:102EC000A5F9244A08211160A16841F00101A1601F
:102ED000642000F039F9FEF7B3FF1F48016821F0C4
:102EE0000701491C0160416821F00701491C41604C
:102EF0006820FEF71BFE4FF416414FF0402000F013
:102F00003FF90220FFF771F900210220FFF777F95E
:102F10000820FFF76AF900210820FFF770F91E204A
:102F2000FFF763F901211E20FFF769F91320FFF76E
:102F30005CF901211320FFF762F9BDE8104007A0FA
:102F4000FDF704BA51E5CC1A3C88004000C2EB0BF7
:102F50000020004000E100E0880300402A2A2A2ADD
:102F60002A2A2A2A2A2A2A535953205265626F6F25
:102F7000742A2A2A2A2A2A2A2A2A2A2A2A000000E5
:102F80000448016841F47001016004490248086086
:102F90007047000088ED00E00048E8011C000020B8
:102FA00001490120C86170470070004010B5FFF76B
:102FB0003DF955490878401CC0B208700023012231
:102FC00064280ED3CA7091ED010ADFED500A80EE3D
:102FD000201A81ED031A9FED4E0A81ED010A0B7054
:102FE00007E0D1ED010A91ED040A40EE000AC1EDBF
:102FF000010A4848817A484871B1D0ED0C0A90ED39
:103000002E0AF4EEC00AF1EE10FA03DA9FED430A3D
:1030100030EE800A80ED0C0A90ED0C0AD0ED080A23
:1030200030EE601A80ED0D1AD0ED101A90ED000A06
:1030300090ED012AF0EE610A40EE010A90ED0E0AD1
:1030400042EE000AC0ED0F0A10EE901A344CDFED8C
:10305000353AA14201DDF0EE630AC0ED0F0A10EE31
:10306000901ADFF8C4C09FED314A614501D9F0EEF6
:10307000440AC0ED0F0A90ED142A9FED2D0A90ED41
:10308000163ADFED2C2A22EE000A03EE620A9FEDCB
:103090002A3A00EE830A9FED293A01EEC30A90ED29
:1030A000113A03EE220A80ED120A10EE101AA14224
:1030B00001DDB0EE630A80ED120A10EE101A6145D0
:1030C00001D9B0EE440A80ED120A80ED162A80ED97
:1030D000140A80ED0E1AC0ED111AC0ED100A18493D
:1030E0008888401C80B288800A2809D38B804A7067
:1030F0000878401CC0B208700A2801D30B708A708F
:103100001048C26310BD0000280100200000C84222
:103110000000000080020020780100206F12033AB6
:103120006666464066664640CDCCCCBECDCCCCBEB5
:103130007B83F73F7EF96F3F05EC703F7DF9EF3FF2
:10314000140000200070004010B504465020FEF727
:10315000EDFC5020FEF7FEFC4FF47A71B0FBF1F06D
:103160006043B0FBF1F104488162416B41F0010121
:1031700041630121016210BD00700040704770473B
:1031800070B504460D466820FEF7D0FC6820FEF7B7
:10319000E1FC2901B0FBF1F0E16841F08001E16060
:1031A000216860F307012160010A606861F307008C
:1031B0006060E06820F08000E060E06820F00800D7
:1031C000E060E06840F00300E060E06820F00400A8
:1031D000E060606840F04000606070BD70470000D3
:1031E0000748018841F04001018006490520086038
:1031F00005480021C160816821F0010181607047AC
:10320000040000206C9100400020004070B504468E
:103210000D46A069012801D10F48A061A4F18040AA
:10322000B0F5805010D07820FEF780FC7820FEF7B3
:1032300091FC4FF47A71B0FBF1F068432060A06814
:1032400040F00200A06070BD7420FEF76FFC742097
:10325000FEF780FCEDE7000051E5CC1A03B40198BD
:103260004100009850EAC12018BF04204A0D18BF41
:1032700040F0010040F2FF72B2EB515F08BF40F036
:103280000200012808BF052002B0704730380A2824
:1032900001D20120704700207047FEE74FF0FF3059
:1032A00070474FF040210A2805D10D220A604A6973
:1032B00012F0400FFBD0C2B20A604A6912F0400F10
:1032C000FBD07047FFF7E8FDFFF72EFBFEF700FA93
:1032D000FFF7EEFC074E084C0025F560FEF7D2FC28
:1032E000FEF79EFE20780028F7D02570FEF7E8FF55
:1032F000F3E70000002000401600002010B5002970
:103300000AD00878002807D005487844FDF78CFDDE
:10331000002801D0002010BD0248784410BD0000F4
:10332000660400005E0400004FEA1153A3F58063B9
:10333000D3F11E03A8BFD3F1200C08DB4FF00042ED
:1033400042EAC12252EA505232FA03F0704709426F
:103350000BD4102BC4BF0020704703F5787CBCF160
:10336000FF3F05D04FF0FF3070474FF0000070472F
:1033700070B500F0C3F800BF499224800020704768
:10338000F0E7B0FA80F310FA03F10AD0C3F11D039D
:1033900003F580634FEA41504FEA035202EBD1211B
:1033A00070474FF000007047DFF848C170B51CEA65
:1033B000111E1EBF1CEA13159EEA0C0F95EA0C0F96
:1033C00000F06F8081EA030423EA4C134EEAD47EB6
:1033D00021EA4C1141F4801143F48013AE44A1FB67
:1033E000024CA0FB0365AEF17F7E361955EB0C0550
:1033F000A1FB034C4CF10003A0FB021C16EB0C06D6
:10340000654153F10003094218BF46F0010613F469
:10341000007F0BD14FEA03314FEA0530340341EA14
:10342000155140EA16506FF003020AE04FEAC3213B
:103430004FEAC520F40241EA555140EA56506FF078
:10344000020202EB2E4201EB025585EACE710AD050
:103450005FEA440C18BF24F0004450F1000041F131
:10346000000120EAD47040F2FE7C624500D270BDBB
:10347000A84214BF4FF080444FF04044002E08BFD4
:103480000024BEF1806FA8BFA1F1C041BDE870402B
:1034900080F282804FF0000001F1C04101F0004154
:1034A00070479EEA0C0F0CEA131518BF95EA0C0F33
:1034B00006D04FF0000081EA030E0EF0004170BD0F
:1034C00000F01CF88900013E00F007B800F009B8D0
:1034D0004FEA430C5FEA5C5C08D081EA030100F02C
:1034E0005BB84FEA410C5FEA5C5CF6D14FF000003C
:1034F000014970470000FF070000F87F0EF1020E3F
:103500002EF0030E5EF8046B364205D4012A43EB1D
:10351000030515F5001F12D8012841EB010C1CF51D
:10352000001F0CD80ED14FEAD17C15F5001F0CEB13
:103530004C0C0CF1020C08BF4CEBD37C04E04FF0B8
:10354000080C01E04FEAD37C0CEB4C0526FA05F69B
:1035500006F00706B6F1040C06D20EEB860CBDE8A9
:1035600070404CF0010C6047DFE80CF0090B0202E0
:103570004FF000414FF00000A1F5002170BD194649
:103580001046012851EB010418BFD4F5001484BF84
:10359000002001F0004170BD0808A0F500114FEABD
:1035A0003101704743004FEAD30C4FEA3C0C4340D3
:1035B0001FBF40070CF1605113F0FE4F70471CF025
:1035C000006F03D100200CF0004170470CF0004365
:1035D00043EA507010B540EACC0000F00EF800BF8E
:1035E000000000924FEA0001FFF7D6BF4FF0004104
:1035F0004FF00000A1F5002170470EF1020E2EF0F1
:10360000030E5EF8044B244204D44FEA4102B2F1A7
:103610007F4F11D84FEA4003B3F17F4F0CD80ED142
:103620004FEAD07CB2F17F4F0CEB4C0C0CF1020C4A
:1036300008BF4CEBD17C04E04FF0080C01E04FEAEE
:10364000D17C0CEB4C0324FA03F404F00704B4F12E
:10365000040C06D20EEB840CBDE810404CF0010CBB
:103660006047DFE80CF0070802024FF00040A0F5C9
:10367000800010BD0846420018BFD2F1807288BF9A
:1036800000F0004010BD4FF04070E1EE100A7047AE
:10369000FDF725B9303132333435363738394142C8
:1036A00043444546403058003031323334353637A4
:1036B000383961626364656640307800024000001A
:1036C000000000A00000000005400000000000C84D
:1036D000000000000C4000000000409C00000000C2
:1036E000194000000020BCBE000000003440000073
:1036F000BFC91B8E00000004B5400000504BCFD066
:103700006607E2CF010000006C4100003E8251AA32
:10371000DFEEA73401000000D9420000DCB5A0E2D2
:103720003A301F97FFFFFFFFB4450000FD25A0C8FA
:10373000E9A3C14FFFFFFFFFFF3F00000000008033
:1037400000000000FF3F00000000008000000000BB
:103750008C370010000000204800000070010010AD
:10376000D437001048000020C80A00008C01001067
:103770001C00000043000000F8FFFFFF0C000000E9
:103780000E0000000F0000002E00000000000000EE
:103790000000000000000000000000000000000029
:1037A00000000000000000000048E80100000000E8
:1037B0000000000000000000000000000101010105
:1037C0000102030480F0FA0200E1F50580D1F0085F
:0437D00000C2EB0B3D
:0400000510000135B1
:00000001FF
