:020000041000EA
:10000000C80C0020D5010010C71300109112001079
:10001000C51300108F0900102322001000000000FB
:100020000000000000000000000000005B20001045
:10003000550E001000000000851F00105D2000100C
:1000400095120010A9160010150B001025220010A3
:100050001B1200101912001055200010572000101C
:100060000000000000000000000000000000000090
:10007000BF2100105920001093120010CB04001073
:10008000D9040010210500102305001025050010DB
:1000900029050010490500104B0500104D05001002
:1000A0004F050010CD040010CF040010D104001043
:1000B000D3040010D5040010D7040010510500101F
:1000C0005305001055050010570500105905001084
:1000D0005B0500100000000000000000FD010010A2
:1000E000AF160010B51600100F17001013170010F0
:1000F000171700100000000000000000AB160010F1
:10010000AD160010B11600100D17001011170010D9
:100110001517001000000000000000009D0E0010E8
:100120003521001041210010BD210010E10C00100C
:100130008D09001000F002F800F03CF80AA090E8E9
:10014000000C82448344AAF10107DA4501D100F092
:1001500031F8AFF2090EBAE80F0013F0010F18BF23
:10016000FB1A43F001031847AC2B0000CC2B000016
:10017000103A24BF78C878C1FAD8520724BF30C8D3
:1001800030C144BF04680C607047000000230024A5
:1001900000250026103A28BF78C1FBD8520728BF97
:1001A00030C148BF0B6070471FB502F0ABF91FBDEF
:1001B00010B510BD00F053F91146FFF7F5FF02F03E
:1001C00032F800F071F903B4FFF7F2FF03BC00F05E
:1001D00075F900000D480E490860DFF838D00E4868
:1001E0008047DFF830D00D480047FEE7FEE7FEE726
:1001F000FEE7FEE7FEE7FEE7FEE7FEE7FEE70000BC
:1002000007480849084A094B7047000000000010E1
:1002100008ED00E0C80C0020152100103501001089
:10022000C8040020C80C0020C8080020C80800200E
:100230009FED1A1AF5EE000A40EE010ABDEEE00A43
:10024000F5EEC00A10EE100AF1EE10FA38BF401EAB
:1002500000EE100A1349F7EE001AB8EEC00A30EEAD
:10026000C00ADFED0F0A20EE200AFCEEC00A10EEF5
:10027000900AC0F3080000EE900A01EB8000F8EE4F
:10028000600A90ED011A70EE600A90ED000A71EEBE
:10029000E01A21EE800A00EE810A704783F9223EBF
:1002A0000000004410250010DFED190AB5EEC00A69
:1002B00060EE200ABDEEE01A11EE100AF1EE10FA1F
:1002C00038BF401E00EE100A1349F7EE001AB8EED0
:1002D000C00A30EEC00ADFED0F0A60EE200ABCEE65
:1002E000E00A10EE100AC0F3080000EE100A01EB5D
:1002F0008000B8EE400A90ED011A70EEC00A90ED51
:10030000000A71EEE01A21EE800A00EE810A7047C1
:1003100083F9223E000000441025001053EA020C2D
:1003200000F069802DE9F04B4FF00006002B1FBF55
:10033000B3FA83F503FA05F424FA05F65E4012BF1A
:100340001643B2FA82F502FA05F4C5F120051EBF84
:1003500022FA05FC44EA0C04203556EA044C4FEA24
:10036000144418BF641C4FF000084FF0000990427D
:1003700071EB030C39D3002919BFB1FA81F701FAE7
:1003800007F6B0FA80F700FA07F6C7F120071EBF9C
:1003900020FA07FC46EA0C062037B6FBF4FCA7EB74
:1003A0000507103F07F01F0BCBF120060CFA0BFBE3
:1003B0002CFA06F644BFB3460026202FA4BF5E46A3
:1003C0004FF0000B5BEA060C08BF4FF0010B19EB76
:1003D0000B09ABFB027C48EB0608C01B06FB02CCFA
:1003E0000BFB03CC71EB0C01C1E70B460246414607
:1003F0004846BDE8F08B13B54FF000004FF0000108
:10040000AFF30080BDE81C4070474FF0000200B51C
:10041000134694469646203922BFA0E80C50A0E827
:100420000C50B1F12001BFF4F7AF090728BFA0E8D5
:100430000C5048BF0CC05DF804EB890028BF40F8A1
:10044000042B08BF704748BF20F8022B11F0804FE3
:1004500018BF00F8012B704770477047704775460A
:1004600000F028F8AE4605006946534620F0070024
:10047000854618B020B5FFF7C3FEBDE820404FF019
:1004800000064FF000074FF000084FF0000B21F07E
:100490000701AC46ACE8C009ACE8C009ACE8C0094B
:1004A000ACE8C0098D4670470446AFF30080204693
:1004B000FFF789FE004870476404002001491820B6
:1004C000ABBEFEE7260002007047704770477047DA
:1004D00070477047704770470E48006800B20E4979
:1004E00088800C480C300068002804DA09480C3079
:1004F0000068404202E007480C3000680649488026
:1005000004480830006800B2C8800220034908602F
:1005100008607047348D004002000020048C0040C9
:1005200070477047704700000448006800B20449F3
:10053000088020200349086008607047448D00400F
:1005400002000020048C00407047704770477047DD
:1005500070477047704770477047704710B5104834
:10056000006840F002000E4908600B2206210120BD
:1005700000F018F80B220421084600F013F80B22B3
:100580000021052000F00EF80B220A21032000F0C4
:1005900009F8102000F018FF142000F015FF10BD1E
:1005A000188D004070B505460C46164600F04EF812
:1005B00032462146284600F09FF8962211462846EA
:1005C00000F0ACF9284600F0E1F806480068012187
:1005D000A940084303490860102C02DA204600F0C5
:1005E0001DFE70BD108C004001460020102929D24C
:1005F000DFE801F0080A0C0E10121416181A1C1E5F
:100600002022242684201FE094201DE085201BE06A
:10061000952019E0A52017E0B52015E0C52013E0CE
:10062000D52011E086200FE096200DE087200BE01A
:10063000972009E0A72007E0B72005E0C72003E0E6
:10064000D72001E0084600BF00BF704708B5402032
:1006500000F028FA2448006840F0010022490860B0
:10066000224800682249B0FBF1F0C82148431F49E5
:10067000096889001F4AB1FBF2F1B0FBF1F000906C
:1006800000BF0098411E00910028FAD11648001DB5
:10069000006820F00100401C1349091D0860134840
:1006A00000681349B0FBF1F0C82148430F490968BD
:1006B0008900104AB1FBF2F1B0FBF1F0009000BFED
:1006C0000098411E00910028FAD10748001F0068D9
:1006D00020F00100401C0449091F0860084600681A
:1006E00040F00200086008BD1C8D00403C00002066
:1006F00040420F000048E8012DE9F04304460D4652
:10070000164600230027984699462846FFF76CFFB7
:10071000034618090838062828D2DFE800F0030944
:100720000F151B21012703F00F084FF000091EE0F1
:1007300001274FF0000803F00F0918E0022703F02B
:100740000F084FF0000912E002274FF0000803F0F5
:100750000F090CE0032703F00F084FF0000906E033
:1007600003274FF0000803F00F0900E000BF00BFAF
:10077000780740EA066040EA495040EA884102486A
:1007800040F82410BDE8F083388C0040624951F8ED
:100790002010490F08296FD2DFE801F0BA041322B4
:1007A000314F6F8D5C49CC310A685B49803141F82B
:1007B00020205949C0310A685749403141F820206A
:1007C000A7E05549D0310A685349803141F82020CB
:1007D0005149C4310A685049403141F8202098E01D
:1007E0004D49D4310A684C49803141F820204A49AA
:1007F000C8310A684849403141F8202089E046491B
:10080000CC310A684449803141F820204249C03146
:100810000A684149403141F820203F49D0310B68F6
:100820003D498031421C41F822303B49C4310B68BC
:100830003949403141F822306BE03749D0310B68FB
:1008400035498031421C41F822303349C4310B68AC
:100850003149403141F822302F49D4310B682E49BB
:100860008031821C41F822302B49C8310B682A495B
:10087000403141F822304CE04AE02749CC310A6847
:100880002549803141F820202349C0310A68224996
:10089000403141F820202049D4310B681E49803175
:1008A000821C41F822301C49C8310B681A4940317A
:1008B00041F822302DE01849CC310A6816498031C0
:1008C00041F820201449C0310A681349403141F8E9
:1008D00020201149D0310B680F498031421C41F86A
:1008E00022300D49C4310B680B49403141F82230A8
:1008F0000949D4310B6808498031821C41F8223003
:100900000549C8310B680449403141F8223000E004
:1009100000BF00BF70470000388C00402DE9F04751
:1009200004460D461646402000F0D6F80746154806
:10093000B7FBF0F0684342F21071B0FBF1F91148D7
:10094000B7FBF0F07043B0FBF1F000F10108B9F132
:10095000FF0F01D34FF0FF09B8F17F0F01D34FF024
:100960007F08094850F8240069F30700064941F858
:100970002400084650F8240068F30E2041F82400B3
:10098000BDE8F087A0860100388C004070477047B2
:10099000F0B501464FF47A723E48006840F001001D
:1009A000D706C7F8080204E01000A2F1010200D146
:1009B000F0BD38480838006800F001000028F3D086
:1009C00034485430006820F4C0604FF08047C7F8C6
:1009D0005C023846D0F8380220F4C060C7F838020C
:1009E00004242D4EB6FBF1F0431E2C48B1FBF0F071
:1009F0005F1C78436043000445092007D0F81802C3
:100A000064F31A602707C7F818022007D0F8180205
:100A100063F3DE60C7F818022007D0F8180265F308
:100A20001700C7F8180205EB45004001194F0C37B5
:100A30003F68C7F30217C7F10E07B0FBF7F0000CD1
:100A40006427B0FBF7F72007D0F8140267F34D20B6
:100A50002707C7F814022007D0F8140220F08000FE
:100A6000C7F814022007D0F8140240F00300094F21
:100A70000C3738600A4A04E01000A2F1010200D1EC
:100A800096E7044808380068C0F3C0000028F3D097
:100A900001208DE7080200400046C32340420F00BA
:100AA000A08601006C280AD10A49096821F4803126
:100AB00001F580314FF08042C2F86C1209E005491F
:100AC0006C39095821F4807101F58071014A6C3A42
:100AD000115070476C02004030B50346184600F0D4
:100AE00009F8044602480068B0FBF4F5284630BD1A
:100AF0003C00002002466C2A03D10548006881B200
:100B000003E003486C388058C1B2481C70470000AD
:100B10006C02004070470000F0B506465E4850F891
:100B200026705E48845D5E48855D3846FFF730FF7D
:100B3000681E5C49096860F307014FF08040C0F807
:100B40006012681E4FF08041D1F8681260F307010F
:100B5000544808300160681E4FF08041D1F86C1293
:100B600060F30F014F480C300160681E4FF0804168
:100B7000D1F8701260F307014A4810300160601E1E
:100B80004FF08041D1F83C1260F30701454824380A
:100B90000160B7FBF4F044490860B7FBF5F048602A
:100BA00008460068414908603E482838006820F43B
:100BB000C06000F5C0604FF08041C1F8380239488C
:100BC000001F006820F4C06000F5C060C1F85C023E
:100BD00034481430006820F4C06000F5C060C1F8EB
:100BE000740230481830006820F4C06000F5C0601E
:100BF0002C4918310860601E4FF08041D1F8401236
:100C000060F30701274820380160601E4FF08041E3
:100C1000D1F8441260F3070122481C380160601EBD
:100C20004FF08041D1F8481260F307011D48183891
:100C30000160601E4FF08041D1F84C1260F3070153
:100C4000184814380160601E4FF08041D1F85012EE
:100C500060F30701134810380160601E4FF08041B7
:100C6000D1F8541260F307010E480C380160601E81
:100C70004FF08041D1F8741260F307010948143035
:100C80000160611E0007D0F8780261F307004FF0A1
:100C90008041C1F87802F0BD4C0000205C000020CB
:100CA0006000002060020040540400203C0000204E
:100CB0006C2809D14A1E094B1B6862F30F034FF0E1
:100CC0008042C2F86C3208E04A1E044B6C3B1B5851
:100CD00062F30703014A6C3A135070476C020040FC
:100CE000704700005248007800F00100F8B9514800
:100CF000B0F902008C2806DB4D48008820F0010086
:100D0000401C4B4908804B48B0F9020078280FDBA3
:100D100049480078401CC0B24749087008280ADBDF
:100D20004348008820F00100401C4149088002E04F
:100D30000020414908703E480078C0F3800048BB5D
:100D40003C4890ED010ADFED3D0AB4EEE00AF1EE19
:100D500010FA06DB3648008820F00400001D3449F4
:100D60000880344890ED010AF3EE0E0AB4EEE00A72
:100D7000F1EE10FA0FDB32480078401CC0B2304967
:100D8000087008280ADB2A48008820F00400001DAB
:100D90002749088002E0002029490870244800788B
:100DA000C0F30010B8B927480068C0F3002078B934
:100DB00025480078401CC0B22349087003280ADB8C
:100DC0001B48008820F0100010301949088002E00C
:100DD00000201D49087016480078C0F34010B8B9CB
:100DE00018480068C0F3800078B918480078401CA3
:100DF000C0B21649087003280ADB0D48008820F0AD
:100E0000200020300A49088002E000200F490870C5
:100E10000748008850B105200D4908604FF40010C4
:100E2000084948624010486240104862704700001C
:100E30002200002090010020250000200000204218
:100E40002400002000300040260000202700002061
:100E50006C920040704700000B4800680B49B0FBE3
:100E6000F1F0094909688900094AB1FBF2F1B0FBC8
:100E7000F1F008490860044800685111B0FBF1F036
:100E800005490860704700005404002040420F00EC
:100E90000048E801280000202C00002070470000D6
:100EA0002DE9F04F9DB00646324600238448E821E4
:100EB000FFF734FA04468348B0FBF4F01890189812
:100EC000401C04FB00F58048B0FBF5F01990199820
:100ED000401C68434FF47A71B0FBF1F77B48B0FBDC
:100EE000F7F016907A48B0FBF7F015901998410585
:100EF000189841EA0031169841EA80101599084384
:100F000003907448B0FBF5F01C907048B0FBF5F00E
:100F10001B9042F21070B0FBF4F01A9048F6B80043
:100F2000B0FBF4F11A98A1EB0008B8F1000F01D062
:100F3000A8F101081C9801061B9841EA804040EA8C
:100F400088101A9940EA01096348B0FBF5F0149043
:100F500043F69820B0FBF4F013906048B0FBF5F036
:100F600012905F48B0FBF5F011905C48B0FBF7F0D1
:100F7000179014980106139841EA8041129841EAAB
:100F80000031119841EA8011179841EA000A43F6AE
:100F90009820B0FBF4F0109043F69820B0FBF4F0EA
:100FA0000F905048B0FBF4F00E9043F69820B0FB41
:100FB000F4F00D904C48B0FBF5F00C901098010641
:100FC0000F9841EA80410E9841EA00310D9841EABC
:100FD00080110C9841EA000B43F69820B0FBF4F026
:100FE0000B903C48B0FBF5F00A904048B0FBF4F0A1
:100FF000099043F69820B0FBF4F008903C48B0FB11
:10100000F5F00790079801060A9841EA80410B988D
:1010100041EA0031099841EA80110898084302909A
:101020002C48B0FBF5F0069042F21070B0FBF4F0E3
:1010300005902C48B0FBF4F0049006980103059845
:1010400041EA80110498084301902A48C0F80090B2
:101050002849091D03980860081DC0F800A0001D5C
:10106000C0F800B02349103102980860091D0198AA
:1010700008602048006848451FD11E48001D0168CF
:101080000398814219D11B4808300068504514D19B
:1010900018480C30006858450FD1164810300168C8
:1010A0000298814209D113481430016801988142A5
:1010B00003D101201DB0BDE8F08F0020FAE7000049
:1010C0000010A5D420A1070080A4BF0700093D009F
:1010D00000D4300080969800404B4C0000127A00FB
:1010E000002D3101400D0300A0252600A08601003F
:1010F00080F0FA021488004010B54148007830B101
:1011000001282FD002286DD0032876D174E000206A
:101110003C49087000F062FF3B4890ED030AD0EDB7
:10112000050AB4EEE00AF1EE10FA1ADD90ED030ABA
:10113000D0ED040AB4EEE00AF1EE10FA11D2334811
:10114000B0F9020000EE100AB8EEC00A2F48D0ED48
:10115000040AB4EEE00AF1EE10FA02DD012028499B
:1011600008704AE0284890ED030AD0ED050AB4EE75
:10117000E00AF1EE10FA17D390ED030AD0ED040A5D
:10118000B4EEE00AF1EE10FA0EDC2048B0F90200ED
:1011900000EE100AB8EEC00A1C48D0ED040AB4EE06
:1011A000E00AF1EE10FA0CDD19480088401C80B20C
:1011B00017490880B0F5FA6F06DD00201049087065
:1011C00002E000201249088001200E4908701148F1
:1011D000008830B1002008704870887002200849EB
:1011E00008700AE00020074908700A48008810B912
:1011F00000200349087000E000BF00BF10BD0000E0
:101200004000002041000020A402002090010020A6
:101210004600002022000020704770470F280CDC99
:10122000810001F18041D1F8001321F00701491C30
:10123000820002F18042C2F800137047810001F180
:101240008041D1F8001321F00702810001F18041B3
:10125000C1F800237047000010B511B1012913D166
:1012600008E000F01F0301229A40084B441143F8A4
:10127000242009E000F01F0301229A40034B0C3B9D
:10128000441143F8242000BF00BF10BD603000406F
:1012900070477047704700002148007810B101285E
:1012A00026D112E01F48B0F904001E49B1F906101A
:1012B000401A00EE100AB8EEC00ADFED1B0A20EE5D
:1012C000200A1A4880ED070A12E01648B0F9060015
:1012D0001449B1F90410401A00EE100AB8EEC00A21
:1012E000DFED110A20EE200A104880ED070A00BF4A
:1012F00000BF0C48B0F904000A49B1F90610401AC1
:1013000000EE100AB8EEC00ADFED070A20EE200A50
:10131000DFED070A20EE200A064880ED010A70473B
:101320000C00002002000020450CEA39BC0300201C
:10133000F2D2AF41900100201C48408800EE100A14
:10134000B8EE400ADFED1A0A20EE200A194880EDB7
:10135000060A1648B0F900001449B1F90610401AFF
:1013600000EE100AB8EEC00ADFED110A20EE200AE6
:10137000104880ED050A90ED060ADFED0F0A20EE19
:10138000200ABDEEC00A10EE100A00B20B494880D8
:10139000084890ED050ADFED0A0A20EE200ABDEEAE
:1013A000C00A10EE100A00B2088070470200002048
:1013B000CB0AEA39BC030020F81344439001002013
:1013C000CD8C96437047704700F01F020121914079
:1013D0004209920002F1E022C2F8001170470000B9
:1013E00010B58648D0ED030AB0EE600AFEF75CFF48
:1013F000834880ED130A8148D0ED030AB0EE600AFD
:10140000FEF716FF7E4880ED120A7E4890ED050A31
:101410007B4880ED000A90ED000AD0ED020A30EE24
:10142000600AD0ED0E0A20EE200AD0ED0F0A90EDF2
:10143000041A00EEC10AD0ED100A90ED051A00EE74
:10144000C10A80ED030A90ED040A80ED050A90EDD3
:10145000030A80ED040A90ED000AD0ED010AB0EE17
:10146000001A01EE200AD0ED020A30EE200AD0ED7B
:10147000110A20EE200AD0ED0F0A90ED071A00EEB7
:10148000C10AD0ED100A90ED081A00EEC10A80EDF5
:10149000060A90ED070A80ED080A90ED060A80ED35
:1014A000070A90ED010A80ED020A90ED000A80ED36
:1014B000010A90ED120AD0ED030A20EE200AD0EDC9
:1014C000130A90ED061A00EE810A80ED0B0A90EDEA
:1014D0000B0A4D4880ED020A90ED050AD0ED000A96
:1014E00090ED021A00EE810AD0ED010A90ED031A88
:1014F00000EE810A80ED040A90ED040AD0ED060AA0
:10150000B4EEE00AF1EE10FA03DD90ED060A80ED8C
:10151000040A3D4890ED040AD0ED070AB4EEE00A53
:10152000F1EE10FA03D290ED070A80ED040A364876
:1015300090ED040A80ED050A90ED020A80ED030AA1
:1015400090ED040A2D4880ED020A90ED030AD0EDDB
:10155000020A2E4890ED021A00EE810A274880ED1B
:10156000030A90ED030ADFED2A0AB4EEE00AF1EE79
:1015700010FA09DD9FED270A80ED030A01202649B4
:1015800048700020087004E0012023490870002002
:1015900048702148007898B11848808C80B11E4866
:1015A00090ED010A1748D0ED050A90ED051A00EEFE
:1015B000810A194880ED010A0089401C16490881FA
:1015C00015484078C0B10D48808CA8B1012012495F
:1015D00088700846D0ED010A008900EE100AB8EEC6
:1015E000400A80EE801A084680ED031A9FED090A32
:1015F00080ED010A0020088110BD0000A401002038
:10160000CC010020BC0300201C020020440200206A
:10161000DB0FC94000000000A40200201D4890ED2F
:10162000030AB5EEC00AF1EE10FA14DD90ED030ADC
:10163000DFED190AB4EEE00AF1EE10FA0BD217480A
:1016400090ED050AB5EEC00AF1EE10FA03DD0020B8
:10165000134908701DE00F4890ED030ADFED0E0AF4
:10166000B4EEE00AF1EE10FA13DD90ED030ADFEDBF
:101670000D0AB4EEE00AF1EE10FA0AD2074890ED36
:10168000050AB5EEC00AF1EE10FA02D201200449B3
:1016900008707047A4010020DB0F4940BC03002004
:1016A0000C000020DB0FC94070477047704770473F
:1016B0007047000010B5FFF73FFEFFF7EDFDFFF7A5
:1016C0008FFE00F0BFFD0D480078012804D1FFF720
:1016D000A5FF00F0DBF80AE00520094908600020BA
:1016E0000849487088704FF4002007494862FFF7A6
:1016F000F9FA012002498831086010BD400000203D
:101700006C9200404100002000300040704770475C
:1017100070477047704770472DE9F04104460D4609
:1017200016464420FFF7BEF94420FFF7D5F9B0FB79
:10173000F5F04FEA50084420FFF7CEF91549B0FB09
:10174000F1F0704342F21071B0FBF1F700206061DC
:10175000C4F81880606940F004006061606940F47A
:101760008C70606101202062A06D40F06000A06577
:10177000206B206300206067606F40F0530060675B
:10178000C4F88470E767606940F480206061BDE858
:10179000F0810000A086010010B500200146384A03
:1017A000526960F3D132364B5A611A46526961F37D
:1017B0000E325A6100BFC8224EF660211846FFF76C
:1017C000ABFF05202E496C3108602E48D0F8E802A6
:1017D00020F00F00401C2B49C1F8E8022848EC30EB
:1017E000006820F00F00801CC1F8EC022448E830AB
:1017F000006820F0100010302149E83108602920ED
:1018000000F01F02012191404209920002F1E02202
:10181000C2F8001100BF1A48E830006820F4F070E8
:1018200020301849C1F8E8021548EC30006820F46F
:10183000706000F58070C1F8EC021148E830006873
:1018400020F4007000F50070C1F8E8020846D0F8F6
:10185000140240F00100C1F814020B48006820F0A7
:101860000700401D8904C1F858030748001D00689F
:1018700020F00700001D0449091D086010BD00008C
:10188000009200400090004058030040FE4890F84D
:101890009400401CC0B2FC4981F894001E287CDBF7
:1018A000002081F89400084690ED0A0AD0ED060A5F
:1018B00030EE600A80ED0B0A90ED0A0AD0ED210AA5
:1018C000B4EEE00AF1EE10FA04DB90ED210A80EDAF
:1018D0000A0A08E0EC4890ED0A0ADFEDEC0A30EE67
:1018E000200A80ED0A0AE84890ED0E0AD0ED000AC1
:1018F00090ED0B1A00EE810AD0ED010A90ED0C1A62
:1019000000EE810A80ED0D0A90ED0D0ADFEDE00A90
:10191000B4EEE00AF1EE10FA03D89FEDDD0A80ED97
:101920000D0AD94890ED0D0AF6EE000AB4EEE00A71
:10193000F1EE10FA03DBB6EE000A80ED0D0AD24894
:1019400090ED0B0A80ED0C0A90ED0E0A80ED0F0A67
:1019500090ED0D0A80ED0E0A90ED110ADFEDCD0A33
:1019600020EE200AD0ED120A9FEDCB1A01EE600A9C
:10197000D0ED0D0A9FEDC91A01EE200AD0ED0E0A36
:101980009FEDC71A01EE600AD0ED0F0A9FEDC21A53
:1019900001EE200A80ED100A00E023E090ED100A2D
:1019A000DFEDBB0AB4EEE00AF1EE10FA03D89FEDCA
:1019B000B80A80ED100AB44890ED100AF6EE000A5D
:1019C000B4EEE00AF1EE10FA03DBB6EE000A80EDA9
:1019D000100AAD4890ED110A80ED120A90ED100A40
:1019E00080ED110AAF488078002879D0A64890EDA4
:1019F000100AAC48D0ED030A80EE201AA24890ED00
:101A0000050A21EE000A80ED130AA748007810B1FC
:101A1000012816D109E09C4890ED130AD0ED070A81
:101A200030EE600A80ED150A0BE0974890ED130A3E
:101A3000B1EE400AD0ED070A30EE200A80ED150A1B
:101A400000BF00BF904890ED1D0AD0ED020A90ED56
:101A5000151A00EE810AD0ED030A90ED161A00EE79
:101A6000810AD0ED040A90ED171A00EE810A80ED8C
:101A70001F0A90ED1F0AFFEE000AB4EEE00AF1EE35
:101A800010FA04D2BFEE000A80ED1F0A0DE07E4876
:101A900090ED1F0AF7EE000AB4EEE00AF1EE10FA3C
:101AA00003DDB7EE000A80ED1F0A774890ED1F0AAC
:101AB00080ED1B0A90ED160A80ED170A90ED150ACD
:101AC00080ED160A90ED1B0ADFED780AB4EEE00A0D
:101AD000F1EE10FA05D29FED750A80ED1B0A0EE0BB
:101AE000B3E0694890ED1B0ADFED710AB4EEE00A3D
:101AF000F1EE10FA03DD9FED6E0A80ED1B0A6248DD
:101B000090ED1F0A80ED1D0AB0F8900000EE100A5B
:101B1000B8EE400A5C48D0ED1B0A9FED661A00EE55
:101B2000C10ABCEEC00A10EE100A5749A1F88C0099
:101B300061480088401C80B25F490880B0F5FA6FA8
:101B400009DD0020088001205C4908705C480068BD
:101B5000401C5B49086059480078002875D05948F6
:101B6000808C0028FAD058480088401C00B25649A2
:101B70000880012815DB002008804348B0F8920057
:101B8000542807DC54204049A1F8920001204F4915
:101B9000087106E03C48B0F89200C01E3A49A1F82E
:101BA00092004148007810B101286BD1B6E0364868
:101BB000B0F8920040F28261081A3349B1F88C10F3
:101BC000884206DD3048B0F8920040F28261081A7F
:101BD00002E02D48B0F88C002B49A1F888003B4862
:101BE000007998B3374890ED030ADFED300AB4EE80
:101BF000E00AF1EE10FA1FDD90ED030ADFED340A82
:101C0000B4EEE00AF1EE10FA16D200202F49487027
:101C1000012088701C4890ED1B0ADFED260A20EE9B
:101C2000200ABCEEC00A10EE100A2A490860002003
:101C30002949C1F86C0270E000202449487088707E
:101C4000052024493831086067E0E2E0FFE71D48DD
:101C500090ED030ADFED150AB4EEE00AF1EE10FA9A
:101C600053DD90ED030ADFED1A0AB4EEE00AF1EE5F
:101C700010FA4AD2044890ED060AD0ED200AB4EEDC
:101C8000E00A2BE0C4E00000BC0300206F12833A9E
:101C9000CDCCCCBDA245A63FE414FD3E857C303FB3
:101CA000E4147D3FA40200200C000020CDCC4C3D6C
:101CB0003333733F0040D044120000200D00002059
:101CC0001C000020A4010020100000204100002082
:101CD000A8DC45403492004000900040F1EE10FA3C
:101CE00005DD00204B4948700120887003E000208A
:101CF0004849487088704848B0F8880047490860EB
:101D000000204749C1F86C0207E0002041494870B3
:101D10008870052041493831086079E03E48B0F8C4
:101D200092003D49B1F88C10884203DD3A48B0F882
:101D3000920002E03848B0F88C003749A1F88A00D8
:101D40003448007950B3374890ED030ADFED360A86
:101D5000B4EEE00AF1EE10FA17DD90ED030ADFEDC4
:101D6000330AB4EEE00AF1EE10FA0ED2012029494E
:101D70004870002088702848B0F88C002749086017
:101D800000202749C1F86C0241E000202149487039
:101D90008870052021493831086038E0214890EDED
:101DA000030ADFED210AB4EEE00AF1EE10FA26DDB7
:101DB00090ED030ADFED1D0AB4EEE00AF1EE10FA31
:101DC0001DD2154890ED060AD0ED200AB4EEE00AC7
:101DD000F1EE10FA05DD01200E49487000208870F0
:101DE00003E000200B49487088700B48B0F88A0067
:101DF0000A49086000200A49C1F86C0207E0002087
:101E0000044948708870052004493831086000BFD3
:101E100000BF704741000020BC0300203492004006
:101E200000900040A40100200E434C404176C74082
:101E300010B59FED3D0A3D4880ED0A0A9FED3C0A32
:101E400080ED210A90ED210ADFED3A0A20EE200A0A
:101E500080ED200A9FED380A80ED000A9FED370AD9
:101E600080ED010A9FED360A80ED020A9FED350AEA
:101E700080ED030A9FED340A80ED040A33480068C0
:101E80002A49A1F890009FED320A084680ED1D0A0C
:101E90009FED2F0A80ED1E0A9FED2D0A80ED160A98
:101EA0009FED2B0A80ED190A9FED290A80ED0C0A9F
:101EB0009FED270A80ED0E0A40F22E60A1F89200F5
:101EC0009FED240A244880ED050A9FED240A80ED49
:101ED000040A9FED230A234880ED040AF7EE000A66
:101EE0009FED210A00F07CFA204890ED020AB0EE46
:101EF000401ADFED1F0A9FED1F0A00F0B7FA1B48DA
:101F000090ED020AB0EE402ADFED111A9FED1A1A89
:101F1000DFED1A0A9FED1A0A00F0D2F99FED140ABC
:101F200000F006FA10BD00000AD7A33EBC03002053
:101F300060E5D03E3333733F3B017D3F34A274BF35
:101F4000560EDD3FC3F518C046B6533F1C92004005
:101F5000000000000FC8143FA4020020BF47293F23
:101F600000002042900100200060EA464402002068
:101F700000004842CDCC4C3F00001D4452B87EBF0B
:101F80000080F344704700001248007820B14FF4FD
:101F900000201149886103E04FF400200E49486297
:101FA0000C48407820B14FF480100B49886103E061
:101FB0004FF48010084948620648807820B14FF4F9
:101FC00000100549886103E04FF40010024948629F
:101FD00070470000410000200030004040F22E60B9
:101FE0001249A1F892009FED120A084680ED0A0AF4
:101FF0009FED100A80ED210A90ED210ADFED0E0A17
:1020000020EE200A80ED200A00200C49087148705B
:1020100088700B4908800B4908700B4988849FED34
:102020000B0A0B4880ED030A70470000BC03002038
:102030000AD7A33E60E5D03E3333733F4100002012
:10204000120000200D000020A4010020000000006C
:10205000A402002070477047704770477047000027
:1020600010B52848284908602848FEF719FF0020C5
:10207000254908600320FEF74FFD0A215020FEF796
:1020800017FEFEF7E9FE2248006820F00700401C1A
:102090004FF08041C1F888031D48001D006820F002
:1020A0000700401CC1F88C036820FEF7FBFC4FF4CE
:1020B00016414FF0402000F083F80220FFF7BEF8F1
:1020C00000210220FFF7C8F80820FFF7B7F8002129
:1020D0000820FFF7C1F81320FFF7B0F80121132003
:1020E000FFF7BAF81420FFF7A9F801211420FFF731
:1020F000B3F81520FFF7A2F801211520FFF7ACF87F
:1021000010BD000051E5CC1A3C88004000C2EB0B2A
:10211000880300400448006840F4700002490860E9
:10212000024803490860704788ED00E00048E80174
:102130003C00002001200149C86170470070004048
:1021400001201649C8631649087016480078401CDB
:10215000C0B214490870022804DB00200870012076
:102160001149087011480078401CC0B20F4908702E
:102170000A2804DB0020087001200D4908700D4872
:102180000078401CC0B20B490870642804DB0020B2
:102190000870012008490870704700000070004076
:1021A00035000020300000203600002031000020E3
:1021B00037000020320000203800002070477047B0
:1021C00070B504460E466820FEF76CFC6820FEF7EA
:1021D00083FC3101B0FBF1F5E06820F08000803035
:1021E000E060206865F307002060290A606861F3F9
:1021F00007006060E06820F08000E060E06820F0A8
:102200000800E060E06820F00300C01CE060E068C7
:1022100020F00400E060606820F040004030606022
:1022200070BD70477047FFF71BFFFFF7B5FAFEF769
:1022300095F9FFF7FDFD03E0FEF75EFFFFF7A4FE53
:10224000FAE700001A48808C80BB1A4890ED0B0A10
:10225000DFED190AB4EEE00AF1EE10FA26D21748C3
:102260004088401C154948800846408809888842B3
:102270001CDD0020114948800D4890ED020A0846F7
:10228000D0ED010AB4EEE00AF1EE10FA0ADC0848DB
:1022900090ED020A0846D0ED020AB4EEE00AF1EE33
:1022A00010FA00D2704701200149888400BFF9E785
:1022B000A4010020CC010020CDCCCC3EBC020020EB
:1022C000DFED182A60EE222A1748C0ED002A60EEE2
:1022D000202A9FED143A62EE832AC0ED012A80ED98
:1022E000061AC0ED071A1148D0ED022A82EE223AF2
:1022F000F7EE002A73EE622AFCEEE22A12EE900A52
:10230000094908840846008C401C02EE900AF8EE49
:10231000E22AB7EE003AC3EE223A0846C0ED093A87
:1023200070470000CDCC8C3F1C02002044020020EE
:1023300010B52DED028BB0EE408A20212248FEF729
:1023400064F828212148FEF760F864201E490880BF
:10235000C8839FED1F0A28EE000ADFED1E0A20EE5B
:10236000200A084680ED010A9FED1B0A28EE000AAC
:10237000DFED180A20EE200A80ED020A9FED150A13
:1023800028EE000A80ED030A9FED140A80ED040A8E
:1023900090ED030AD0ED040A30EE200A80ED050A24
:1023A00090ED030AD0ED040A30EE600A80ED060AD3
:1023B00090ED030ADFED070A20EE200A034880EDC6
:1023C000020ABDEC028B10BDBC020020A40100205B
:1023D0006666863FDB0FC9403333733FDB0F4940EE
:1023E0001F4880ED030A90ED031A9FED1E2AC2EEEE
:1023F000011AB0EE001A81EE812ABCEEC21A11EE6B
:10240000100A17490880084600884010888208464C
:10241000808A4010C8820846C0ED010A808A01EE19
:10242000100AB8EE411ADFED101A21EE211ABCEEA7
:10243000C11A11EE100A08820846808A098A401AD9
:10244000074948820846D0ED031AB7EE002A82EE0B
:10245000211AD0ED011A21EE211A80ED021A7047DF
:102460004402002020BC3E4D0AD7A33CF0EE403A87
:102470009FED204A21EE044AB0EE443A9FED1E4AF9
:1024800021EE044A24EE014AF0EE442A23EE204ACB
:10249000B0EE442A22EEA04A24EE204AB0EE440ACE
:1024A000B1EE004A32EE044A34EE004AF0EE441A2D
:1024B00082EE214A114880ED0E4AB2EE004AF0EE5B
:1024C000004A14EE804AC4EE214AC0ED0F4AB1EE34
:1024D000004A34EE424A34EE004AC4EE214AC0EDCE
:1024E000104A9FED074A20EE044AC4EE214AC0ED8F
:1024F000114A70477BD92041E4E91D42CC010020FC
:10250000CDCC4C3F4FF00000E1EE100A70470000C8
:1025100000000000920E493CB10AC93C2BC3163D95
:102520002EFB483D752B7B3D04A9963D80B6AF3D03
:1025300036BDC83D2FBCE13D73B2FA3D87CF093EA1
:102540008340163EB5AB223EA2102F3ECF6E3B3EDF
:10255000C2C5473E0115543E135C603E7F9A6C3EF7
:10256000CCCF783EC07D823E938E883E229A8E3EAE
:1025700032A0943E86A09A3EE59AA03E128FA63ED7
:10258000D47CAC3EEF63B23E2A44B83E491DBE3E09
:1025900015EFC33E53B9C93ECA7BCF3E4136D53E47
:1025A00080E8DA3E4F92E03E7533E63EBBCBEB3E31
:1025B000EA5AF13ECBE0F63E275DFC3EE4E7003F01
:1025C0003D9C033F824B063F9BF5083F6B9A0B3FB8
:1025D000DA390E3FCDD3103F2A68133FD9F6153FA5
:1025E000C07F183FC6021B3FD17F1D3FCBF61F3F68
:1025F0009967223F25D2243F5636273F1594293F1D
:102600004AEB2B3FDE3B2E3FBB85303FC9C8323FF4
:10261000F304353F233A373F4268393F3B8F3B3F16
:10262000F9AE3D3F67C73F3F70D8413F01E2433FAE
:1026300003E4453F65DE473F12D1493FF8BB4B3FBE
:10264000029F4D3F207A4F3F3D4D513F4918533F28
:1026500031DB543FE595563F5348583F6AF2593FA6
:102660001A945B3F532D5D3F05BE5E3F2146603FA0
:1026700097C5613F5A3C633F59AA643F880F663F44
:10268000D86B673F3CBF683FA7096A3F0C4B6B3F65
:102690005E836C3F93B26D3F9ED86E3F73F56F3F84
:1026A0000809713F5213723F4714733FDD0B743FAB
:1026B0000BFA743FC6DE753F07BA763FC58B773F8E
:1026C000F853783F9812793F9DC7793F02737A3F5C
:1026D000BE147B3FCDAC7B3F283B7C3FC9BF7C3FDA
:1026E000AC3A7D3FCCAB7D3F23137E3FB0707E3F45
:1026F0006DC47E3F580E7F3F6D4E7F3FAB847F3F62
:102700000FB17F3F97D37F3F43EC7F3F11FB7F3F6C
:102710000000803F11FB7F3F43EC7F3F97D37F3F1B
:102720000FB17F3FAB847F3F6D4E7F3F580E7F3FA1
:102730006DC47E3FB0707E3F23137E3FCCAB7D3FA8
:10274000AC3A7D3FC9BF7C3F283B7C3FCDAC7B3F53
:10275000BE147B3F02737A3F9DC7793F9812793F41
:10276000F853783FC58B773F07BA763FC6DE753F93
:102770000BFA743FDD0B743F4714733F5213723FE3
:102780000809713F73F56F3F9ED86E3F93B26D3F5E
:102790005E836C3F0C4B6B3FA7096A3F3CBF683FB1
:1027A000D86B673F880F663F59AA643F5A3C633F26
:1027B00097C5613F2146603F05BE5E3F532D5D3F9B
:1027C0001A945B3F6AF2593F5348583FE595563F8C
:1027D00031DB543F4918533F3D4D513F207A4F3F25
:1027E000029F4D3FF8BB4B3F12D1493F65DE473F4B
:1027F00003E4453F01E2433F70D8413F67C73F3F95
:10280000F9AE3D3F3B8F3B3F4268393F233A373F6C
:10281000F304353FC9C8323FBB85303FDE3B2E3F16
:102820004AEB2B3F1594293F5636273F25D2243FAC
:102830009967223FCBF61F3FD17F1D3FC6021B3F4A
:10284000C07F183FD9F6153F2A68133FCDD3103FFC
:10285000DA390E3F6B9A0B3F9BF5083F824B063FE0
:102860003D9C033FE4E7003F275DFC3ECBE0F63EA6
:10287000EA5AF13EBBCBEB3E7533E63E4F92E03E6B
:1028800080E8DA3E4136D53ECA7BCF3E53B9C93ED9
:1028900015EFC33E491DBE3E2A44B83EEF63B23E2B
:1028A000D47CAC3E128FA63EE59AA03E86A09A3E0E
:1028B00032A0943E229A8E3E938E883EC07D823E08
:1028C000CCCF783E7F9A6C3E135C603E0115543E3F
:1028D000C2C5473ECF6E3B3EA2102F3EB5AB223E57
:1028E0008340163E87CF093E73B2FA3D2FBCE13DCF
:1028F00036BDC83D80B6AF3D04A9963D752B7B3DE6
:102900002EFB483D2BC3163DB10AC93C920E493CF3
:1029100000000000920E49BCB10AC9BC2BC316BD11
:102920002EFB48BD752B7BBD04A996BD80B6AFBDFF
:1029300036BDC8BD2FBCE1BD73B2FABD87CF09BE9D
:10294000834016BEB5AB22BEA2102FBECF6E3BBEDB
:10295000C2C547BE011554BE135C60BE7F9A6CBEF3
:10296000CCCF78BEC07D82BE938E88BE229A8EBEAA
:1029700032A094BE86A09ABEE59AA0BE128FA6BED3
:10298000D47CACBEEF63B2BE2A44B8BE491DBEBE05
:1029900015EFC3BE53B9C9BECA7BCFBE4136D5BE43
:1029A00080E8DABE4F92E0BE7533E6BEBBCBEBBE2D
:1029B000EA5AF1BECBE0F6BE275DFCBEE4E700BFFD
:1029C0003D9C03BF824B06BF9BF508BF6B9A0BBFB4
:1029D000DA390EBFCDD310BF2A6813BFD9F615BFA1
:1029E000C07F18BFC6021BBFD17F1DBFCBF61FBF64
:1029F000996722BF25D224BF563627BF159429BF19
:102A00004AEB2BBFDE3B2EBFBB8530BFC9C832BFF0
:102A1000F30435BF233A37BF426839BF3B8F3BBF12
:102A2000F9AE3DBF67C73FBF70D841BF01E243BFAA
:102A300003E445BF65DE47BF12D149BFF8BB4BBFBA
:102A4000029F4DBF207A4FBF3D4D51BF491853BF24
:102A500031DB54BFE59556BF534858BF6AF259BFA2
:102A60001A945BBF532D5DBF05BE5EBF214660BF9C
:102A700097C561BF5A3C63BF59AA64BF880F66BF40
:102A8000D86B67BF3CBF68BFA7096ABF0C4B6BBF61
:102A90005E836CBF93B26DBF9ED86EBF73F56FBF80
:102AA000080971BF521372BF471473BFDD0B74BFA7
:102AB0000BFA74BFC6DE75BF07BA76BFC58B77BF8A
:102AC000F85378BF981279BF9DC779BF02737ABF58
:102AD000BE147BBFCDAC7BBF283B7CBFC9BF7CBFD6
:102AE000AC3A7DBFCCAB7DBF23137EBFB0707EBF41
:102AF0006DC47EBF580E7FBF6D4E7FBFAB847FBF5E
:102B00000FB17FBF97D37FBF43EC7FBF11FB7FBF68
:102B1000000080BF11FB7FBF43EC7FBF97D37FBF17
:102B20000FB17FBFAB847FBF6D4E7FBF580E7FBF9D
:102B30006DC47EBFB0707EBF23137EBFCCAB7DBFA4
:102B4000AC3A7DBFC9BF7CBF283B7CBFCDAC7BBF4F
:102B5000BE147BBF02737ABF9DC779BF981279BF3D
:102B6000F85378BFC58B77BF07BA76BFC6DE75BF8F
:102B70000BFA74BFDD0B74BF471473BF521372BFDF
:102B8000080971BF73F56FBF9ED86EBF93B26DBF5A
:102B90005E836CBF0C4B6BBFA7096ABF3CBF68BFAD
:102BA000D86B67BF880F66BF59AA64BF5A3C63BF22
:102BB00097C561BF214660BF05BE5EBF532D5DBF97
:102BC0001A945BBF6AF259BF534858BFE59556BF88
:102BD00031DB54BF491853BF3D4D51BF207A4FBF21
:102BE000029F4DBFF8BB4BBF12D149BF65DE47BF47
:102BF00003E445BF01E243BF70D841BF67C73FBF91
:102C0000F9AE3DBF3B8F3BBF426839BF233A37BF68
:102C1000F30435BFC9C832BFBB8530BFDE3B2EBF12
:102C20004AEB2BBF159429BF563627BF25D224BFA8
:102C3000996722BFCBF61FBFD17F1DBFC6021BBF46
:102C4000C07F18BFD9F615BF2A6813BFCDD310BFF8
:102C5000DA390EBF6B9A0BBF9BF508BF824B06BFDC
:102C60003D9C03BFE4E700BF275DFCBECBE0F6BEA2
:102C7000EA5AF1BEBBCBEBBE7533E6BE4F92E0BE67
:102C800080E8DABE4136D5BECA7BCFBE53B9C9BED5
:102C900015EFC3BE491DBEBE2A44B8BEEF63B2BE27
:102CA000D47CACBE128FA6BEE59AA0BE86A09ABE0A
:102CB00032A094BE229A8EBE938E88BEC07D82BE04
:102CC000CCCF78BE7F9A6CBE135C60BE011554BE3B
:102CD000C2C547BECF6E3BBEA2102FBEB5AB22BE53
:102CE000834016BE87CF09BE73B2FABD2FBCE1BDCB
:102CF00036BDC8BD80B6AFBD04A996BD752B7BBDE2
:102D00002EFB48BD2BC316BDB10AC9BC920E49BCEF
:102D100000000080342D001000000020640000003E
:102D200070010010982D001064000020640C000059
:102D30008C010010000000000000000000000000F6
:102D40000000000000000000000000000000000083
:102D50000000000000000000000000000000000073
:102D60000000000000000000000000000000000063
:102D70000048E80100000000000000000000000022
:102D800080F0FA0200E1F50580D1F00800C2EB0BFB
:082D900001010101010203042D
:0400000510000135B1
:00000001FF
