:020000041000EA
:10000000A80A0020D5010010F31100106D11001096
:10001000F1110010370A00107D20001000000000D0
:100020000000000000000000000000001F1D001084
:10003000750D001000000000851C0010211D00102F
:1000400071110010F5110010890B001081200010B3
:100050001711001015110010191D00101B1D0010A4
:100060000000000000000000000000000000000090
:100070001F2000101D1D00106F110010070600103A
:1000800015060010B1060010B3060010B5060010EA
:10009000B9060010C9060010CB060010CD060010EE
:1000A000CF060010090600100B0600100D06001008
:1000B0000F0600101106001013060010D1060010E4
:1000C000D3060010D5060010D7060010D906001080
:1000D000DB0600100000000000000000FD01001021
:1000E000FD110010C7140010CB140010CF14001025
:1000F000D31400100000000000000000F7110010F1
:10010000F9110010C5140010C9140010CD1400100E
:10011000D11400100000000000000000A90D001024
:10012000F51D0010011E00101D200010810C001094
:10013000350A001000F002F800F03CF80AA090E840
:10014000000C82448344AAF10107DA4501D100F092
:1001500031F8AFF2090EBAE80F0013F0010F18BF23
:10016000FB1A43F001031847F0320000103300007F
:10017000103A24BF78C878C1FAD8520724BF30C8D3
:1001800030C144BF04680C607047000000230024A5
:1001900000250026103A28BF78C1FBD8520728BF97
:1001A00030C148BF0B6070471FB502F0B5FC1FBDE2
:1001B00010B510BD00F053F91146FFF7F5FF01F03F
:1001C0009DFF00F089F903B4FFF7F2FF03BC00F0D4
:1001D000F3F900000D480E490860DFF838D00E48EA
:1001E0008047DFF830D00D480047FEE7FEE7FEE726
:1001F000FEE7FEE7FEE7FEE7FEE7FEE7FEE70000BC
:1002000007480849084A094B7047000000000010E1
:1002100008ED00E0A80A0020D51D001035010010EF
:10022000A8020020A80A0020A8060020A806002096
:100230009FED1A1AF5EE000A40EE010ABDEEE00A43
:10024000F5EEC00A10EE100AF1EE10FA38BF401EAB
:1002500000EE100A1349F7EE001AB8EEC00A30EEAD
:10026000C00ADFED0F0A20EE200AFCEEC00A10EEF5
:10027000900AC0F3080000EE900A01EB8000F8EE4F
:10028000600A90ED011A70EE600A90ED000A71EEBE
:10029000E01A21EE800A00EE810A704783F9223EBF
:1002A00000000044542C0010DFED190AB5EEC00A1E
:1002B00060EE200ABDEEE01A11EE100AF1EE10FA1F
:1002C00038BF401E00EE100A1349F7EE001AB8EED0
:1002D000C00A30EEC00ADFED0F0A60EE200ABCEE65
:1002E000E00A10EE100AC0F3080000EE100A01EB5D
:1002F0008000B8EE400A90ED011A70EEC00A90ED51
:10030000000A71EEE01A21EE800A00EE810A7047C1
:1003100083F9223E00000044542C001053EA020CE2
:1003200000F069802DE9F04B4FF00006002B1FBF55
:10033000B3FA83F503FA05F424FA05F65E4012BF1A
:100340001643B2FA82F502FA05F4C5F120051EBF84
:1003500022FA05FC44EA0C04203556EA044C4FEA24
:10036000144418BF641C4FF000084FF0000990427D
:1003700071EB030C39D3002919BFB1FA81F701FAE7
:1003800007F6B0FA80F700FA07F6C7F120071EBF9C
:1003900020FA07FC46EA0C062037B6FBF4FCA7EB74
:1003A0000507103F07F01F0BCBF120060CFA0BFBE3
:1003B0002CFA06F644BFB3460026202FA4BF5E46A3
:1003C0004FF0000B5BEA060C08BF4FF0010B19EB76
:1003D0000B09ABFB027C48EB0608C01B06FB02CCFA
:1003E0000BFB03CC71EB0C01C1E70B460246414607
:1003F0004846BDE8F08B13B54FF000004FF0000108
:10040000AFF30080BDE81C4070474FF0000200B51C
:10041000134694469646203922BFA0E80C50A0E827
:100420000C50B1F12001BFF4F7AF090728BFA0E8D5
:100430000C5048BF0CC05DF804EB890028BF40F8A1
:10044000042B08BF704748BF20F8022B11F0804FE3
:1004500018BF00F8012B704770477047704775460A
:1004600000F04AF8AE4605006946534620F0070002
:10047000854618B020B5FFF7C3FEBDE820404FF019
:1004800000064FF000074FF000084FF0000B21F07E
:100490000701AC46ACE8C009ACE8C009ACE8C0094B
:1004A000ACE8C0098D4670471FB584B000200A9C97
:1004B00006AB04AA02A90094AFF3008018B1DDE9ED
:1004C000020108B010BD0348204000F00EF80020E3
:1004D0000146F6E70000207C10B50446AFF300802B
:1004E0002046BDE81040FFF76EBE10B500F00EF8D4
:1004F000BDE8104000F004B80048704744020020F6
:10050000002801D000F058B87047000010B502284C
:1005100003D0410103D50DA112E0002010BD01015F
:1005200001D50FA10CE0C10001D511A108E08100A7
:1005300001D512A104E0400001D513A100E0002183
:1005400015A000F03FF8012010BD0000496E766153
:100550006C6964204F7065726174696F6E00000091
:10056000446976696465204279205A65726F00009B
:100570004F766572666C6F7700000000556E64659B
:1005800072666C6F77000000496E65786163742055
:10059000526573756C7400005349474650453A20C4
:1005A00041726974686D657469632065786365700C
:1005B00074696F6E3A20000001491820ABBEFEE757
:1005C0002600020070B505460C460A2000E06D1CAE
:1005D00000F011F835B128780028F8D102E0641C49
:1005E00000F009F814B120780028F8D1BDE8704077
:1005F0000A20AFF3008008B569468DF8000003209B
:10060000ABBE08BD70477047704770477047704772
:100610007047704710B41E480068DFF878C003B216
:10062000ACF804301C48006800B2ACF806001B4966
:1006300009680AB2ACF8002019490C68002C02DAEB
:100640000968494200E00968ACF80210191A00EE86
:10065000101ADFED140A1449B8EEC00A20EE200A81
:1006600081ED090A101A01EE100AB8EEC11A61EE06
:10067000200AC1ED070AD1ED180AC1ED190A81ED72
:10068000180A0A4802210160016010BC704700008E
:10069000348D0040000000203C8D0040448D00401F
:1006A000408D00408513EA3958010020048C004039
:1006B00070477047704700000248202101600160C8
:1006C00070470000048C00407047704770477047C7
:1006D00070477047704770477047704710B50F48B4
:1006E000016841F00201016008220621012000F0AA
:1006F00019F804210822084600F014F80822002105
:10070000052000F00FF808220A21032000F00AF863
:100710000348016841F06041016010BD188D004040
:100720003C8C004070B505460C46164600F04AF871
:1007300032462146284600F087F896221146284680
:1007400000F048F9284600F0B7F80748026801238E
:10075000AB401A430260102C04D22046BDE8704022
:1007600000F0DABC70BD0000108C004010280AD2E6
:10077000DFE800F0080A0C0E10121416181A1C1EDE
:1007800020222426842070479420704785207047BB
:1007900095207047A5207047B5207047C520704749
:1007A000D520704786207047962070478720704775
:1007B00097207047A7207047B7207047C720704721
:1007C000D720704738B5402000F0B0F919480168CB
:1007D00041F0010101601848184CC82201684FEA35
:1007E000441CB1FBF4F050438B00B3FBFCF2B0FBB4
:1007F000F2F000900098421E0092FBD2104802686E
:1008000042F001020260B1FBF4F0C8214843B3FB9F
:10081000FCF1B0FBF1F000900098411E0091FBD27A
:100820000848016841F001010160016841F00201DE
:10083000016038BD1C8D00401800002040420F00B0
:10084000208D0040188D004070B5064608460023F4
:1008500000240025FFF78AFF0109083906291BD269
:10086000DFE801F003070B0F1317012300F00F045B
:1008700012E0012300F00F050EE0022300F00F0448
:100880000AE0022300F00F0506E0032300F00F0446
:1008900002E0032300F00F055807B10040EA0260B0
:1008A00001F1804140EA455001F5004140EA8440B1
:1008B000C1F8380C70BD00002DE9F003810001F192
:1008C000804101F50041D1F8382C404B4FEA527875
:1008D000821C401C92008000DFF8F4C01C1D261D05
:1008E0001F1F02F1804200F180400CF1040502F567
:1008F000004200F50040B8F1080F0CD2DFE808F024
:100900000B040E1720303F4F1868C1F8B80CDCF804
:100910000000C1F8780CBDE8F00370472068C1F80A
:10092000B80C2868C1F8780CBDE8F003704730684F
:10093000C1F8B80C3868C1F8780CBDE8F00370470E
:100940001A68C1F8B82CDCF80020C1F8782C2168AE
:10095000C0F8B81C2968C0F8781CBDE8F0037047DF
:100960002168C0F8B81C2968C0F8781C3068C2F843
:10097000B80C3868C2F8780CBDE8F0037047186806
:10098000C1F8B80CDCF80000C1F8780C3068C2F887
:10099000B80C3868C2F8780CBDE8F00370471B68E3
:1009A000C1F8B83CDCF80030C1F8783C2168C0F8E8
:1009B000B81C2968C0F8781C3068C2F8B80C3868D0
:1009C000C2F8780CBDE8F00370470000048D0040C9
:1009D000F88C004070B505460C461646402000F0E5
:1009E000B9F8134A42F21073B0FBF2F16143B1FB64
:1009F000F3F1B0FBF2F07043B0FBF3F0401CFF29C1
:100A000000D3FF217F2800D37F20AA0002F180427B
:100A100002F50042D2F8383C61F30703C2F8383CD3
:100A2000D2F8381C60F30E21C2F8381C70BD0000EB
:100A3000A0860100704770474FF47A72D106D1F852
:100A4000083243F00103C1F80832D1F8003213F044
:100A5000010F08D1521E01D200207047D1F8003298
:100A600013F0010FF6D0D1F85C2222F4C062C1F875
:100A70005C22D1F8382222F4C062C1F83822042363
:100A8000274AB2FBF0F2521EDFF898C0B0FBFCFC24
:100A9000501C0CFB00F080044009D1F818C263F32D
:100AA0001A6CC1F818C2D1F8183262F3DE63C1F8CB
:100AB0001832D1F8182260F31702C1F8182200EB9F
:100AC0004000D1F814224001C2F30212C2F10E021A
:100AD0004FF4C8035A43B0FBF2F2D1F8140262F3A8
:100AE0004D20C1F81402D1F8140220F08000C1F8A2
:100AF0001402D1F8140240F00300C1F814020A48AD
:100B0000D1F8002212F0080F08D1401E01D20020B7
:100B10007047D1F8002212F0080FF6D0012070477C
:100B20000046C32340420F00A08601006C2808D075
:100B300000F18040D0F8001241F48071C0F800123A
:100B400070470348016841F480310160704700003C
:100B50006C02004000B500F007F802490968B1FBDB
:100B6000F0F000BD180000206C2806D000F1804095
:100B7000D0F80002C0B2401C70470248006880B242
:100B8000F9E700006C0200407047000070B52E4984
:100B900051F8204008390D5C091D0E5C2046FFF716
:100BA0004BFF2A48711E826A61F307028262026B60
:100BB00061F307020263426B61F30F024263826BCF
:100BC00061F3070282634268691E61F307024260B3
:100BD000B4FBF5F21E4B1A60B4FBF6FCC3F804C07C
:100BE0001C4B1A60026842F4C0620260426A42F41E
:100BF000C0624262C26B42F4C062C263026C42F4E1
:100C0000C0620264826861F307028260C26861F3B5
:100C10000702C260026961F307020261426961F37F
:100C200007024261826961F307028261C26961F36E
:100C30000702C261C26B61F30702C263026C61F317
:100C40000702026470BD00002C0000203802004042
:100C50001C02002018000020491E6C2808D000F15A
:100C60008040D0F8002261F30702C0F800227047EC
:100C70000248026861F30F02026070476C02004094
:100C80007047000010B4354A354C4FF0000C108806
:100C9000A2F1060310F0010F10D1B4F90210B1F562
:100CA000D27F09DB9978491CC9B29970082905D30C
:100CB00040F00100108001E083F802C0108810F0BD
:100CC000040F0FD1B4F90410232909DB5978491C0A
:100CD000C9B25970082905D340F00400108001E022
:100CE00083F801C010881F4910F0100F06D10B685F
:100CF00013F4807F02D140F010001080108810F0B3
:100D0000200F06D10B6813F0040F02D140F0200031
:100D100010801548D0F8A43113F0010F04D01388C7
:100D200043F08003138003E0138823F080031380D3
:100D30001288002A0FD00522C0F86C214FF4001051
:100D40004862401048624010486208490A20087012
:100D500007490220087010BC704700000E000020F8
:100D60003C00002000300040009000400C000020BB
:100D70001C000020704700000848094A00684FEA3C
:100D8000421C8300B0FBF2F1B3FBFCF3B1FBF3F3C5
:100D900004490B60B0FBF2F0486070471C02002071
:100DA00040420F0010000020704700002DE9F05F66
:100DB000024600235B48E821FFF7B0FA5A49B1FB2D
:100DC000F0F2511C4143594BB3FBF1F303F1010C19
:100DD00001FB0CFC4FF47A74BCFBF4FC544EB6FBE4
:100DE000FCF4544DB5FBFCF55B0543EA023242EAE4
:100DF00084122A43DFF840A1BAFBF1F5B6FBF1F605
:100E000042F2107BBBFBF0F448F6B803B3FBF0F3FF
:100E10001B1B03B15B1E2D0645EA864545EA83137D
:100E20002343464CB4FBF1F543F69824B4FBF0F6AB
:100E3000DFF80C91B9FBF1F7DFF80881B8FBF1F8A6
:100E4000B9FBFCFC2D0645EA864545EA073545EA2F
:100E5000881545EA0C0CB4FBF0F5B4FBF0F6DFF8AE
:100E6000E8E0BEFBF0F7B4FBF0F8DFF8E090B9FB88
:100E7000F1F92D0645EA864545EA073545EA881524
:100E800045EA0905B4FBF0F6BAFBF1F74FEA6E0844
:100E9000B8FBF0F8B4FBF0F4DFF8B490B9FBF1F96B
:100EA0004FEA096949EA874747EA063646EA88165B
:100EB0003443BAFBF1F1BBFBF0F6BEFBF0F00903E3
:100EC00041EA86110843234E3360371D3A6007F12B
:100ED0000408C8F800C008F10409C9F8005009F175
:100EE000040ACAF800400AF10401086036689E420C
:100EF00014D13B68934211D1D8F8002062450DD13E
:100F0000D9F80020AA4209D1DAF80020A24205D17E
:100F10000968814202D10120BDE8F09F0020BDE8B0
:100F2000F09F00000010A5D420A1070080A4BF07F7
:100F300000093D0000D4300080969800404B4C00E2
:100F400000127A00002D3101400D0300A02526007B
:100F500080F0FA02148800402DE9F041644B634DA3
:100F60000122B3F90200D3ED040A634B29780A2762
:100F7000DFF880C193ED030A604C0026002908D0F9
:100F800001296DD0022902D126708CF80070BDE8CD
:100F9000F08126708CF800705949DFF85C81677D1C
:100FA000D1ED081A98ED041AEFB193ED082AB4EECA
:100FB000C20AF1EE10FAEADDB4EEC10AF1EE10FA5F
:100FC000E5D200EE100AB8EEC00AB4EEE00AF1EE87
:100FD00010FADCDD2A70A271C1ED0C1A8CF8002029
:100FE0006675BDE8F081DFF81081277D98ED052A50
:100FF000EFB1B4EEC20AF1EE10FAF2DD93ED091A88
:10100000B4EEC10AF1EE10FAEBD200EE100AB8EE1F
:10101000C00AB4EEE00AF1EE10FAE2DD2A70A27125
:10102000C1ED0C1A8CF800202675BDE8F081B4EEF5
:10103000C20AF1EE10FAF8DDB4EEC10AF1EE10FAD0
:10104000F3D200EE100AB8EEC00AB4EEE00AF1EEF8
:1010500010FAEADD2A70A2718CF80020BDE8F08158
:10106000D3ED061A244B2749B4EEE10A93ED071A93
:10107000F1EE10FA0DD3B4EEC10AF1EE10FA08DC6D
:1010800002EE100AB8EEC22AB4EEE02AF1EE10FA2F
:1010900020D20888401C80B2088064281BD9B4EE96
:1010A000C10AF1EE10FA01DD227505E0B4EEE10AA5
:1010B000F1EE10FA00D262752E7013490520086017
:1010C00012484FF4801141624900416200F0FCFD7A
:1010D000267000E00E800E4800880028BED02670E2
:1010E0006670A67002202870BDE8F0811C00002008
:1010F0003C0000200C000020100100202C020020E9
:10110000580100201E0000206C910040003000407B
:101110000E000020704770470F2809D8800000F1AA
:101120008040D0F8001321F00701491CC0F80013DB
:101130007047800000F18040D0F8001321F00701D3
:10114000C0F800137047012300F01F0203FA02F2F7
:101150004009800000F1804000F54050002903D094
:10116000012900D142657047026670477047704799
:10117000704700001748DFED180AB0F9020000EED2
:10118000100A1648B8EEC00A20EE200A80ED080AC0
:10119000DFED130A134920EE200ABDEEC00A10EE5F
:1011A000102A4A8090ED070ADFED0F0A20EE200A90
:1011B000BDEEC00A10EE102A0A8090ED090ADFED9C
:1011C0000B0A20EE200ABDEEC00A10EE100A88803D
:1011D00070470000000000208513EA395801002004
:1011E000F81344433C000020CD8C96435C8FE441CF
:1011F0007047704770477047704700002DE9F0470F
:101200009C480068DFF870C203B2ACF804309B4819
:10121000006800B2ACF80600994909680AB2ACF857
:10122000002098490C68002C02DA0968494200E065
:101230000968ACF80210111A00EE101AF8EEC00A94
:101240009FED910ADFF8449260EE800AC9ED070A2B
:10125000181A00EE900AF8EEE00A20EE800A89EDF6
:10126000090ADFF82C82D8F800008A4F10F0040F2A
:101270004FF0020505D18848018841F02001018026
:101280003D70864E96ED030A86ED040AFFF70CF8D2
:1012900006F12C0484ED130A96ED030AFEF7C8FF4D
:1012A00084ED120AD9ED070AC4ED000A94ED021A82
:1012B00094ED0E2A94ED0F3A70EEC11AD4ED042A83
:1012C000D4ED053A61EE821A94ED102A43EE621ACB
:1012D00042EE631AC4ED031AC4ED052AC4ED041AE4
:1012E000D4ED012AB0EE004AF0EE603A42EE843AC4
:1012F00033EE811AD4ED113A21EE231AD4ED073AD8
:1013000003EE631A94ED083A02EE431A84ED061ACE
:10131000C4ED083A84ED071AC4ED022AC4ED010AAF
:1013200020EE210AD4ED131A01EE810A84ED0B0A96
:1013300004F1540080ED020A90ED051AD0ED001A78
:1013400090ED032A01EE801AD0ED011A01EE821A07
:1013500080ED041AD0ED061AB4EEE11AF1EE10FA9F
:1013600001DDC0ED041AD0ED041A90ED071AF4EE79
:10137000C11AF1EE10FA01D280ED041A90ED041AB0
:1013800080ED051A80ED030A86ED021A444896EDB9
:10139000030AD0ED021A01EE210A86ED030A10EECF
:1013A000102A404B1830002101249A4206DD9FED9F
:1013B0003E0A86ED030A4470017000E004703B7839
:1013C00005223A48DFF8E890012B46D1338DB3B3BC
:1013D00096ED030A374E384BB5EEC00AF1EE10FA1F
:1013E0000BDD10EE10CA9C4507DCF5EEC00AF1EEED
:1013F00010FA02DBF170018223E010EE10CADFF870
:10140000BC80C444BCF5000F07D2F5EEC00AF1EE73
:1014100010FA02D2F470018213E0F57090F809C05E
:10142000BCF1000F05D0B0F810C00CF1010CA0F811
:1014300010C010EE10CA9C4502DA047201E00CE004
:101440000172008A642805D31D490A200870C9F872
:101450006C213D7000F020F907E0C9F86C21417063
:1014600081704FF40020C8F82400C9F8F441BDE8A9
:10147000F0870000348D0040000000203C8D0040CB
:10148000448D0040408D00408513EA39580100200A
:10149000003000401C0000200E0000205000002002
:1014A000F8000020DB0FC940000000002C020020E3
:1014B0000090004008000020DB0F494024F0B6BF38
:1014C0000C000020704770477047704770477047A6
:1014D0007047704770B504460D4616464420FFF726
:1014E00025FB4420FFF736FBB0FBF5F04508442010
:1014F000FFF730FB1349B0FBF1F0704342F210717B
:10150000B0FBF1F000216161A561626942F0040263
:101510006261626942F48C72626101222262A26D90
:1015200042F06002A265226B22636167616F41F045
:1015300053016167C4F88400E067606940F480206B
:10154000606170BDA086010010B5002211463848C8
:10155000436962F3D1334361426961F30E32426100
:10156000FA224EF66021FFF7B5FF324C05202060CD
:101570000021082000F06CF80021022000F07AF829
:101580000B2020622C4860632063E06F20F00F0086
:10159000401CE067D4F8800020F00F00401CC4F825
:1015A0008000E06F40F01000E067E06F20F4F07022
:1015B0002030E067D4F8800020F4706000F580707F
:1015C000C4F88000E06F40F40070E0671B490868D1
:1015D0004FF6FF02104040F4407040F0FD7040F0C4
:1015E000806008601020164908701649302081F884
:1015F000000415494020087054F8580C40F00100D0
:1016000044F8580C1148016821F00701491D016098
:10161000416821F00701491D4160206820F0030066
:10162000401C2060206820F00C00001D206010BDD0
:10163000009100406C910040C0FF03000CED00E001
:1016400028E400E003E000E039E400E0500300405B
:1016500070B504460D462046FFF76BFD002120467D
:10166000FFF771FD024944EA8510086070BD000073
:10167000009F004070B504460D462046FFF759FD17
:1016800000212046FFF75FFD024944EA851008600B
:1016900070BD0000049F0040EF49A1F14800D1ED6A
:1016A000120A90ED031A80EE810AD1ED070A20EEAE
:1016B000200A81ED1A0AE9480A46E94BC07892ED02
:1016C000091A1A7A002804D0012807D0022814D158
:1016D00009E030EE410A81ED1C0A0EE031EE400ACD
:1016E00081ED1C0A09E022B130EE410A81ED1C0AAD
:1016F00003E031EE400A81ED1C0A91ED240AD1EDA0
:10170000021A91ED1C1AF0EE402A91ED032A01EE27
:10171000810AD1ED1D1A91ED1E3A02EE210A91EDDA
:10172000042A02EE030A81ED270A10EE10CABCF16A
:101730007E5F01DDB7EE000A81ED270A10EE10CAC8
:101740001CF1814F01D9BFEE000A81ED270A9FED00
:10175000C52A20B1012809D002281CD10DE0B0EE25
:10176000403A00EEC23A81ED223A14E0B0EE403A3F
:1017700000EE823A81ED223A0DE032B1B0EE403A0D
:1017800000EEC23A81ED223A05E0B0EE403A00EEBA
:10179000823A81ED223AD1ED220ADFF8CCC210EE76
:1017A000902A624501DDDFEDB10AC1ED220A10EE9B
:1017B000902ADFF8BCC2624501DADFEDAE0AC1ED66
:1017C000220AC1ED1E1A81ED1D1AC1ED252A81EDF7
:1017D000240AA94A12780B2A80F03A81DFE802F045
:1017E000FE061D295077A3AFD1FFFC00A34ADFF806
:1017F00090C2D06860450FDA1069A24A90420BDDB2
:101800009D4A02201070A04A052010609FED9F0A9B
:1018100081ED240A0120587270479B490520086019
:1018200096489B49C0688842F6DC934903200870BB
:10183000704795480022026091ED220ADFED950A7B
:1018400020EE200ABCEEC00A10EE10CA40F838CCD8
:10185000D0F800C02CF00C0C0CF1080CC0F800C043
:101860008648DFF82CC2C0686045E1DBDFF808C2BB
:1018700004208CF800000120987281F8BE20704787
:10188000814A0023136091ED220ADFED820A20EEE7
:10189000200ABCEEC00A10EE10CA42F838CCD2F8CA
:1018A00000C02CF0030C0CF1020CC2F800C091F83F
:1018B000BE20521CD2B281F8BE20082ADFD90028EF
:1018C000DDD16D4A0520107081F8BE30704791ED72
:1018D000220ADFED700A704A20EE200ABCEEC00A30
:1018E00010EE10CAC2F834C1D2F86CC12CF0030C4F
:1018F0000CF1020CC2F86CC101221A7091ED0C0AB5
:10190000D1ED290AB4EEE00AF1EE10FA00DB1A700C
:101910005A49624AC968914201DA0128D6D156492A
:1019200006200870704758490520086053485C49F4
:10193000C0688842F6DA5049072008707047594855
:101940000022826391ED220AF7EE000A30EEC00A0F
:10195000DFED500A20EE200ABCEEC00A10EE103A6D
:101960000360836B23F003039B1C836343484C4B4E
:10197000C0689842E2DB404B0820187081F8BE2016
:101980007047414A0023136091ED220AF7EE000AE6
:1019900030EEC00ADFED3F0A20EE200ABCEEC00A9E
:1019A00010EE10CA42F838CCD2F800C02CF00C0C63
:1019B0000CF1080CC2F800C091F8BE20521CD2B243
:1019C00081F8BE20082ADBD90128D9D12A4A09206A
:1019D000107081F8BE30704733E000E038E000223C
:1019E00081F8BE2091ED220AF7EE000A2A4A30EE75
:1019F000C00ADFED280A20EE200ABCEEC00A10EE75
:101A000010CAC2F834C1D2F86CC12CF00C0C0CF125
:101A1000080CC2F86CC191ED0C0AD1ED290AB4EEA4
:101A2000E00AF1EE10FA01DB0121197013491E4A98
:101A3000C968914201DA0028CDD10F49022008700F
:101A40007047114905200860002058709870704751
:101A500009490A200870704758010020080000203A
:101A60002C0200209A99193F3333733F3333733F6D
:101A70000AD7A33B0AD7A33B0C000020500000204C
:101A8000DB0FC940DB0F49406C91004000000000B3
:101A9000CDCCCC3C0040D04400900040A8DC454078
:101AA00075A94A40349100404176C74000000000CB
:101AB00070B52DED028BB7EE000A534C84ED0C0A85
:101AC000B0EE000A84ED290A9FED500A84ED2A0A3F
:101AD0009FED4F0A84ED2B0ADFED4E8A9FED4E0AF3
:101AE00084ED280A9FED4D0A84ED000A9FED4C0A13
:101AF00084ED010A9FED4B0A84ED020A9FED4A0A2C
:101B000084ED030A9FED490A84ED040A4848006801
:101B100080B2A4F8B8009FED478A84ED248A84ED52
:101B2000268A84ED1D8A84ED208A84ED0E8A84ED58
:101B3000108A00F08BFC0D4606469FED3F1B53ECD0
:101B4000112B00F097FC00F013FCA4F8B00045EC5A
:101B5000106B9FED3B1B51EC100B53EC112B00F065
:101B600089FC00F005FCA4F8B2009FED370AA4F14F
:101B7000480080ED050A9FED350A80ED040A9FEDCF
:101B8000340A80ED070A9FED330A80ED060A9FEDC7
:101B9000320A80ED090A9FED310A80ED080A3148CA
:101BA0009FED2F0A80ED040AF7EE000A9FED2E0A42
:101BB00000F06AFBDFED2D3AA4F16001B0EE680A97
:101BC00091ED021AF0EE630A00F094FB91ED022A07
:101BD000F0EE481A9FED261ADFED260A9FED260A41
:101BE00000F0CCFAB0EE630A00F0F8FA2348016A7C
:101BF00041F0010101628115214801604904016041
:101C0000BDEC028B70BD0000580100203333F33F60
:101C1000CDCC0C40CDCC4C3FCDCCCC3F9626D93E44
:101C20004703D8BEE1F7F13ED4221DBF36174C3E24
:101C30001C91004000000000666666666666EE3F26
:101C40007B14AE47E17A743F00DFCB3EC6605D3F58
:101C50000D84733FCD18A33E7F3D473F1A42E03EBF
:101C600091AF57433C00002000606A4700004842A3
:101C700000001D4474B27FBFDAF664430070004078
:101C800004E100E0704700000D480E4A4FF40021C7
:101C90000378002B01D0916100E05162417808483F
:101CA0004FF48013807801B130B153624FF40013C8
:101CB00000B119B1536270479361F7E793617047C0
:101CC0002C0200200030004010B5C4210C48FEF763
:101CD0009CFB0C480024046044608460C460046180
:101CE0008482FFF7E5FE08480470084804859FEDEC
:101CF000080AC03080ED030A06490A20087010BDAA
:101D0000580100202C020020080000205000002074
:101D1000000000000C0000207047704770477047BB
:101D20007047000010B5264C244820602548FFF776
:101D30003DF8002020600320FEF728FF0A215020F4
:101D4000FEF78AFF204C0A21204600F0AFF91F4A17
:101D500008211160A16841F00101A160642000F038
:101D600043F9FFF709F81A48016821F00701491CF7
:101D70000160416821F00701491C41606820FEF7BD
:101D8000D5FE4FF416414FF0402000F049F90220F3
:101D9000FFF7CFF900210220FFF7D5F90820FFF760
:101DA000C8F900210820FFF7CEF91320FFF7C1F989
:101DB0000121BDE810401320FFF7C5B951E5CC1A49
:101DC0003C88004000C2EB0B0020004000E100E036
:101DD000880300400448016841F47001016004492F
:101DE000024808607047000088ED00E00048E80104
:101DF0001800002001490120C861704700700040B0
:101E000070B500F08FF9FFF7B5F96649664D674880
:101E10000A7862B12A8D52B1D1ED010A90ED070A1C
:101E200040EE000AC1ED010A0A89521C0A814A7873
:101E30004FF0000C0123DFED5E0A9AB12A8D8AB1C2
:101E40008B700A8991ED011A00EE102AB8EE400A53
:101E5000C1EE001AC1ED031A81F801C0C1ED010AFB
:101E6000A1F808C0534C627ADAB10A89FA2A18D369
:101E70002E8DB6B1A5F828C04F4D2E8846F4807639
:101E80002E8081F801C000EE102A91ED011AB8EE03
:101E9000400AC1EE001AC1ED031AC1ED010AA1F812
:101EA00008C0A17A71B1D0ED0C0A90ED290AF4EEC8
:101EB000C00AF1EE10FA03DA9FED400A30EE800A14
:101EC00080ED0C0A90ED0C0A90ED082A30EE421AD3
:101ED00080ED0D1AD0ED101A90ED000AD0ED0E2A0B
:101EE000F0EE610A40EE010A90ED010A40EE220A8E
:101EF000C0ED0F0A10EE901ADFF8C4C09FED314A12
:101F0000614501DDF0EE440AC0ED0F0A10EE902AA3
:101F10002D49DFED2E4A8A4201D9F0EE640AC0ED68
:101F20000F0AD0ED142A9FED2A0AD0ED163A9FED44
:101F3000293A22EE800A03EEC30ADFED273A00EECB
:101F4000A30ADFED263A01EEE30AD0ED113A03EEE3
:101F5000830A80ED120A10EE102A624501DDB0EE10
:101F6000440A80ED120A10EE102A8A4201D9B0EE1E
:101F7000640A80ED120AC0ED162A80ED140A80ED85
:101F80000E1AC0ED111AC0ED100A90ED2A0AB4EE37
:101F9000C02AF1EE10FA02DB11490720086011484F
:101FA000C36370BD100100205000002058010020C4
:101FB000000000002C0200200E0000206F12033AE7
:101FC0009A99193F9A99193FCDCCCCBECDCCCCBEB5
:101FD0007B83F73F7EF96F3F05EC703F7DF9EF3F64
:101FE0008C9100400070004010B504465020FEF770
:101FF0009DFD5020FEF7AEFD4FF47A71B0FBF1F07D
:102000006043B0FBF1F104488162416B41F0010192
:1020100041630121016210BD0070004070477047AC
:1020200070B504460D466820FEF780FD6820FEF777
:1020300091FD2901B0FBF1F0E16841F08001E16020
:10204000216860F307012160010A606861F30700FD
:102050006060E06820F08000E060E06820F0080048
:10206000E060E06840F00300E060E06820F0040019
:10207000E060606840F04000606070BD7047000044
:102080000748018841F040010180064905200860A9
:1020900005480021C160816821F00101816070471D
:1020A0000E0000206C9100400020004070B50446F6
:1020B0000D46A069012801D10F48A061A4F180401C
:1020C000B0F5805010D07820FEF730FD7820FEF774
:1020D00041FD4FF47A71B0FBF1F068432060A068D5
:1020E00040F00200A06070BD7420FEF71FFD742058
:1020F000FEF730FDEDE7000051E5CC1AFFF712FEC8
:10210000FFF722FAFEF7EAFAFFF7D2FC044C0025AB
:10211000E560FEF721FFFEF7B5FDFFF7B5FDF7E738
:1021200000200040134A108D002822D102F12C001B
:102130001149C06A88421CDA02F1E8014888401C53
:1021400080B248800B88984213D90020488092EDD5
:10215000020AD1ED010AB4EEE00AF1EE10FA08DC51
:10216000D1ED020AB4EEE00AF1EE10FA01D301203B
:102170001085704750000020CDCCCC3EDFED152AF5
:10218000154920EE223A81ED003A20EE200A20EE99
:10219000220A81ED010A81ED061AC1ED071A01F14B
:1021A000280090ED020AC2EE000AB7EE000A70EEB7
:1021B000C00AFCEEE00A10EE900A80B20884401CCF
:1021C00000EE900AF8EE600A80EE201A81ED091AFE
:1021D00070470000CDCC8C3FD00000202449002067
:1021E000C1F8E800C1F8EC00C1F8F000C1F8F40053
:1021F000C1F8F800C1F8FC00C1F80001C1F8040101
:10220000086048608860C860086148618861C8618A
:10221000086248628862174864210180C183DFED4B
:10222000160A9FED161A60EE200A60EE810AC0EDD4
:10223000010ADFED130A60EE200A60EE810AC0EDAC
:10224000020A20EE010A80ED030ADFED0E0AC0ED5E
:10225000040A70EE201AC0ED051A70EE600AC0ED97
:10226000060A20EE010AE83880ED020A70470000F5
:1022700050000020380100206666863FDB0FC94011
:102280003333733FDB0F4940174981ED030ADFED1C
:10229000171A81EE801AF6EE001A21EE211ABCEE12
:1022A000C11A11EE100A80B20880400888824208E4
:1022B000CA82C1ED010A01EE100ADFED0D1AB8EE77
:1022C000411A21EE211ABCEEC11A11EE102A0A821F
:1022D000801A4882F7EE001A81EE801A21EE200A59
:1022E00081ED020A70470000F800002020BC3E4D3E
:1022F0000AD7A33C9FED1A0A61EE001A9FED190A56
:1023000021EE000A20EE010A21EEA01A20EE200A9A
:1023100020EE200AF1EE001A71EE210A70EE800A1A
:10232000114881EE202A80ED0E2AF0EE002AB2EE4E
:10233000002A10EE222AC2EE202AC0ED0F2A31EE2A
:10234000C11A31EE001AC1EE201AC0ED101A9FED2D
:10235000071A20EE010A80EE201A80ED111A70474C
:102360007BD92041E4E91D427C000020CDCC4C3FCC
:102370004FEA1153A3F5806380B5D3F11E03A8BFC4
:10238000D3F1200C1BDB4FF0004242EAC12252EA9B
:10239000505232FA03FC62FA03F787EA0C0757EA55
:1023A000C0270AD052EA505232FA03FC6046BDE818
:1023B0008040DFF890C000F0B9BA604680BD0942A5
:1023C00018D450EA410C00D180BD102B07DD4FF02E
:1023D0000000BDE88040DFF86CC000F0A7BA03F54C
:1023E000787CBCF1FF3F22D0BDE88040DFF858C0C8
:1023F00000F09CBABDE8804001F1804212F5801FD8
:1024000009DA50EA41024FF0000018BFDFF834C08B
:1024100040F08C827047DFF830C0012841EB0102A8
:1024200012F5001F88BF4CF4803C00F07FBABDE875
:10243000804070B500F0FEF8000000BFE800030423
:1024400080B5D1E7E8000240E8000204B0FA80F36A
:1024500010FA03F10AD0C3F11D0303F580634FEABC
:1024600041504FEA035202EBD12170474FF0000078
:1024700070470000DFF8B4C170B51CEA111E1EBF22
:102480001CEA13159EEA0C0F95EA0C0F00F09480DD
:1024900081EA030421EA4C114EEAD47E23EA4C136C
:1024A000AE4441F4801143F48013A1FB024CA0FB25
:1024B0000365AEF17F7E361955EB0C05A1FB034C8D
:1024C0004CF10003A0FB021C16EB0C06654153F116
:1024D0000003094218BF46F0010613F4007F0BD138
:1024E0004FEA03314FEA0530340341EA155140EA1F
:1024F00016506FF003020AE04FEAC3214FEAC520ED
:10250000F40241EA555140EA56506FF00202264665
:1025100002EB2E4201EB025585EACE7127D0F1EE97
:1025200010CA05461CF4400C14D15FEA440C18BFD5
:1025300024F0004450F1000041F1000120EAD47081
:1025400040F2FD7C624517D2BDE87040DFF8E0C084
:1025500000F0ECB95FEACE7454BF1CF4000F1CF419
:10256000800F08BF10F1010041F10001E8E740F2DF
:10257000FE7C624504D270BD08BF11F4801FE3D019
:10258000A84214BF4FF080444FF04044002E08BFD3
:102590000024BEF1806FD8BF01F1C041A8BFA1F1F6
:1025A000C04144F0130CA8BF4CF0805CBDE8704003
:1025B00040F3FF8000F0BAB99EEA0C0F0CEA131545
:1025C00018BF95EA0C0F19D091EA030F48BF4EF0DF
:1025D000010E50EA410418BF52EA430409D000F04A
:1025E000AAF8641986EA46064FEA044E4EEAD67EF9
:1025F0005BE74FEACE714FF0000070BD00F01AF8B3
:102600008900013E1300000400F005B800F007B88F
:1026100052EA430C06D081EA030100F0C4B850EA44
:10262000410CF8D15FF824C000F080B90000FF072A
:10263000130000400EF1020E2EF0030E01285EF88A
:10264000086B41EB010414F5001418BFB4F5801FAA
:1026500023D3364208D4012A43EB030515F50015B0
:1026600018BFB5F5801F18D301EB010C1CF5801FB6
:1026700016D2364204D403EB030C1CF5801F0FD294
:10268000002C10D14FEAD17C002D0CEB4C0C0CF13E
:10269000020C08BF4CEBD37C07E04FF0090C04E0C0
:1026A0004FF0080C01E04FEAD37C0CEB4C0526FA06
:1026B00005F606F00706B6F1040C06D20EEB860C02
:1026C000BDE870404CF0010C6047DFE80CF02224BC
:1026D00013025EF804CC1B2D08D1002C88BFB4F582
:1026E000801F34BF4CF4804C4CF4004CBDE870406B
:1026F00000F01CB9002C88BFB4F5001F24BF194698
:10270000104670BD4FF000004FF00041A1F50021D0
:1027100070BD19461046012851EB010418BFD4F5CD
:10272000001484BF5EF804CC2CF0806CBDE87040CF
:1027300000F2DC80704780B54FF003065C004FEA82
:1027400003334FEA3606640D4FEA133318BF43F4E0
:1027500080131CD153EA125E04F1010402BF134638
:102760000022203C1B4202BF130B1205143CB3FA9B
:1027700083FEAEF10B0ECEF1200C03FA0EF322FA1B
:102780000CFC02FA0EF2A4EB0E0443EA0C030FB4A5
:1027900016F0010F0CBC03BC18BF2546CED180BD7E
:1027A00080B50126F3E70808A0F500114FEA3101D2
:1027B0007047F1EE103A13F0807F1EBF01F0004128
:1027C0000020704713F4006F40F0AA80094248BF10
:1027D0004CF4803C4FF4C0634FEA115203F1010303
:1027E00021EA025122F400629A1A48BF6FF0FE02F9
:1027F00041F48011352A3CD830D0152A1ED3203A16
:102800000CD90028C2F1200321FA02F001FA03F2E8
:1028100018BF42F001024FF0000130E0C2F10003A6
:1028200002F1200201FA03F120FA02F241EA020168
:1028300000FA03F208464FF0000120E0C2F1200345
:1028400010B400FA03F401FA03F320FA02F021FABB
:1028500002F1224610BC43EA000010E050EA0132C7
:102860004FF000004FF000014FF0004218BF521C23
:1028700005E04FF001024FF000014FF000001CF4A2
:10288000803F2CF4803C18BF41F0004112421ED022
:10289000F1EE103A13F4400F20D1520003D30CD0C4
:1028A000401C41F10001F1EE103A4CF0804C43F035
:1028B0000803E1EE103A00F039B85FEAAC72EFD4E9
:1028C000F1D1401C41F1000120F00100EBE71CF0C8
:1028D000804F08BF70472CF0004CE4E7094254BF1A
:1028E00013F4000F13F4800FDDD1D9E7F1EE103AA5
:1028F00013F0807F1EBF01F000410020704713F4E9
:10290000006F08BF70472DE9F050FFF749FF04F54D
:10291000C064A4F10104314301EB0451BDE8F0505F
:102920004CF0005C4CF0800C00F054B91CF0700FBF
:1029300008BF0A460FB4F1EE101A0CF0405030EA0E
:10294000814318BF4CF0804C4FEA4C0310EA814F92
:102950004FEAD36323EA112318BF23F0100341EA9F
:10296000030101F0E073E1EE101A4CEA030C0CF0E5
:102970000F030A2B1DBF082B0CF070034CEAC30C8D
:102980004FF4003304BF33EA0C034CF4400C1CF04A
:10299000005F14D11CF0805F0BD11CF0804F31D14F
:1029A0001CF0006F12D111F4807F0FBC62D000F0D8
:1029B00011B911F4806F0FBC2BD000F00BB911F4DA
:1029C000006F0FBC08BF704700F004B911F4007F1E
:1029D0000FBC40F0FF801CF0400F1EBF4FF00040C6
:1029E00040F0010070471CF0100F14BF81EA030291
:1029F00042400CF00F000A2808BF4FF0FF324FF0A2
:102A0000000326E011F4805F0FBC08BF704700F0A0
:102A1000E1B8F1EE103A2CF0805C1CF0800F14BF8E
:102A200001F0004200F0004212420CBF12EA336F84
:102A300012EAF35F0DD31CF0100F1DBF30A003C8C6
:102A40001143314808BF104313F4805F40F0C28047
:102A500070471CF0100F02F000421DBF0FF29400EF
:102A600003C81143254808BF104313F4805F40F0AA
:102A7000B18070471CF0400F40F028801CF4404F9C
:102A80001BD01CF4004F1CBF194610460CF480727A
:102A900018BF8CEA520C1CF0800F0CBF40F4800071
:102AA00041F400218CEADC0313F0100F1CBF2CF062
:102AB0000F0C4CF0080C00F034B81CF0100F1ABFCB
:102AC00012A393E80300134800F02BB81CF0800F0A
:102AD00014BF01F0004200F000421CF0100F1BBFB9
:102AE0000AA393E803000B48114308BF104300F00A
:102AF00018B800BF000000000000F07F0000807FD9
:102B0000FFFFFFFFFFFFEF7FFFFF7F7F0000000061
:102B10000000F87F0000C07F4FF00000E1EE100AD7
:102B200070470CF00F03092B08BF082000F06480E9
:102B30000A2B32D0082B18BF704708BF1CF0400F7B
:102B400031D01CF4803F23D11CF0200F11D11CF098
:102B5000100F0BBF02460A466FF000406FF00041B5
:102B600018BF4FF0FF3012F0004F1CBFC043C943E5
:102B700070471CF0100F0CBF02460A4612F0004FBF
:102B80004FF0FF304FF0FF311CBFC043C9437047C7
:102B90004FF000004FF0000170471CF0400F18BFCD
:102BA0004FF0004070471CF0100F08D020F0704329
:102BB00000F07F4242EAD3014FEA4370704700F0D1
:102BC000604021F07F4242EA000201F07F4040EA8B
:102BD000727070472DE900502DE90050FDF764FC3C
:102BE000BDE80050BDE800500CF00F0393F0090F52
:102BF00018BF7047AFF300801CF4801F24D01CF472
:102C0000E02F09D010F0080F02D1D0F10200704778
:102C10006FEACC31490070474FF0604111EA4070D3
:102C200028BF40F04050F1EE103A23F0704343EAE1
:102C30000003E1EE103AEFF3008222F0704242EA24
:102C4000000282F3008870471CEA004018BF012090
:102C50007047000000000000920E493CB10AC93CD8
:102C60002BC3163D2EFB483D752B7B3D04A9963D9D
:102C700080B6AF3D36BDC83D2FBCE13D73B2FA3DD5
:102C800087CF093E8340163EB5AB223EA2102F3EB1
:102C9000CF6E3B3EC2C5473E0115543E135C603EBD
:102CA0007F9A6C3ECCCF783EC07D823E938E883E2C
:102CB000229A8E3E32A0943E86A09A3EE59AA03E8D
:102CC000128FA63ED47CAC3EEF63B23E2A44B83E9F
:102CD000491DBE3E15EFC33E53B9C93ECA7BCF3E28
:102CE0004136D53E80E8DA3E4F92E03E7533E63E0F
:102CF000BBCBEB3EEA5AF13ECBE0F63E275DFC3E15
:102D0000E4E7003F3D9C033F824B063F9BF5083FB5
:102D10006B9A0B3FDA390E3FCDD3103F2A68133F31
:102D2000D9F6153FC07F183FC6021B3FD17F1D3F1C
:102D3000CBF61F3F9967223F25D2243F5636273FC7
:102D40001594293F4AEB2B3FDE3B2E3FBB85303F9E
:102D5000C9C8323FF304353F233A373F4268393F11
:102D60003B8F3B3FF9AE3D3F67C73F3F70D8413F88
:102D700001E2433F03E4453F65DE473F12D1493F4F
:102D8000F8BB4B3F029F4D3F207A4F3F3D4D513F97
:102D90004918533F31DB543FE595563F5348583F60
:102DA0006AF2593F1A945B3F532D5D3F05BE5E3F6B
:102DB0002146603F97C5613F5A3C633F59AA643F33
:102DC000880F663FD86B673F3CBF683FA7096A3FE3
:102DD0000C4B6B3F5E836C3F93B26D3F9ED86E3F52
:102DE00073F56F3F0809713F5213723F4714733FE9
:102DF000DD0B743F0BFA743FC6DE753F07BA763FB2
:102E0000C58B773FF853783F9812793F9DC7793F3C
:102E100002737A3FBE147B3FCDAC7B3F283B7C3FA7
:102E2000C9BF7C3FAC3A7D3FCCAB7D3F23137E3F97
:102E3000B0707E3F6DC47E3F580E7F3F6D4E7F3F2A
:102E4000AB847F3F0FB17F3F97D37F3F43EC7F3F02
:102E500011FB7F3F0000803F11FB7F3F43EC7F3F32
:102E600097D37F3F0FB17F3FAB847F3F6D4E7F3F56
:102E7000580E7F3F6DC47E3FB0707E3F23137E3F70
:102E8000CCAB7D3FAC3A7D3FC9BF7C3F283B7C3F0C
:102E9000CDAC7B3FBE147B3F02737A3F9DC7793F29
:102EA0009812793FF853783FC58B773F07BA763F42
:102EB000C6DE753F0BFA743FDD0B743F4714733F5A
:102EC0005213723F0809713F73F56F3F9ED86E3FF2
:102ED00093B26D3F5E836C3F0C4B6B3FA7096A3F1B
:102EE0003CBF683FD86B673F880F663F59AA643F75
:102EF0005A3C633F97C5613F2146603F05BE5E3F38
:102F0000532D5D3F1A945B3F6AF2593F5348583F37
:102F1000E595563F31DB543F4918533F3D4D513FF6
:102F2000207A4F3F029F4D3FF8BB4B3F12D1493FA4
:102F300065DE473F03E4453F01E2433F70D8413F30
:102F400067C73F3FF9AE3D3F3B8F3B3F4268393F4C
:102F5000233A373FF304353FC9C8323FBB85303F82
:102F6000DE3B2E3F4AEB2B3F1594293F5636273F39
:102F700025D2243F9967223FCBF61F3FD17F1D3FCB
:102F8000C6021B3FC07F183FD9F6153F2A68133F82
:102F9000CDD3103FDA390E3F6B9A0B3F9BF5083FBC
:102FA000824B063F3D9C033FE4E7003F275DFC3E2C
:102FB000CBE0F63EEA5AF13EBBCBEB3E7533E63E44
:102FC0004F92E03E80E8DA3E4136D53ECA7BCF3EA6
:102FD00053B9C93E15EFC33E491DBE3E2A44B83E13
:102FE000EF63B23ED47CAC3E128FA63EE59AA03E83
:102FF00086A09A3E32A0943E229A8E3E938E883EC0
:10300000C07D823ECCCF783E7F9A6C3E135C603EA2
:103010000115543EC2C5473ECF6E3B3EA2102F3E27
:10302000B5AB223E8340163E87CF093E73B2FA3DD0
:103030002FBCE13D36BDC83D80B6AF3D04A9963DED
:10304000752B7B3D2EFB483D2BC3163DB10AC93C79
:10305000920E493C00000000920E49BCB10AC9BC66
:103060002BC316BD2EFB48BD752B7BBD04A996BD99
:1030700080B6AFBD36BDC8BD2FBCE1BD73B2FABDD1
:1030800087CF09BE834016BEB5AB22BEA2102FBEAD
:10309000CF6E3BBEC2C547BE011554BE135C60BEB9
:1030A0007F9A6CBECCCF78BEC07D82BE938E88BE28
:1030B000229A8EBE32A094BE86A09ABEE59AA0BE89
:1030C000128FA6BED47CACBEEF63B2BE2A44B8BE9B
:1030D000491DBEBE15EFC3BE53B9C9BECA7BCFBE24
:1030E0004136D5BE80E8DABE4F92E0BE7533E6BE0B
:1030F000BBCBEBBEEA5AF1BECBE0F6BE275DFCBE11
:10310000E4E700BF3D9C03BF824B06BF9BF508BFB1
:103110006B9A0BBFDA390EBFCDD310BF2A6813BF2D
:10312000D9F615BFC07F18BFC6021BBFD17F1DBF18
:10313000CBF61FBF996722BF25D224BF563627BFC3
:10314000159429BF4AEB2BBFDE3B2EBFBB8530BF9A
:10315000C9C832BFF30435BF233A37BF426839BF0D
:103160003B8F3BBFF9AE3DBF67C73FBF70D841BF84
:1031700001E243BF03E445BF65DE47BF12D149BF4B
:10318000F8BB4BBF029F4DBF207A4FBF3D4D51BF93
:10319000491853BF31DB54BFE59556BF534858BF5C
:1031A0006AF259BF1A945BBF532D5DBF05BE5EBF67
:1031B000214660BF97C561BF5A3C63BF59AA64BF2F
:1031C000880F66BFD86B67BF3CBF68BFA7096ABFDF
:1031D0000C4B6BBF5E836CBF93B26DBF9ED86EBF4E
:1031E00073F56FBF080971BF521372BF471473BFE5
:1031F000DD0B74BF0BFA74BFC6DE75BF07BA76BFAE
:10320000C58B77BFF85378BF981279BF9DC779BF38
:1032100002737ABFBE147BBFCDAC7BBF283B7CBFA3
:10322000C9BF7CBFAC3A7DBFCCAB7DBF23137EBF93
:10323000B0707EBF6DC47EBF580E7FBF6D4E7FBF26
:10324000AB847FBF0FB17FBF97D37FBF43EC7FBFFE
:1032500011FB7FBF000080BF11FB7FBF43EC7FBF2E
:1032600097D37FBF0FB17FBFAB847FBF6D4E7FBF52
:10327000580E7FBF6DC47EBFB0707EBF23137EBF6C
:10328000CCAB7DBFAC3A7DBFC9BF7CBF283B7CBF08
:10329000CDAC7BBFBE147BBF02737ABF9DC779BF25
:1032A000981279BFF85378BFC58B77BF07BA76BF3E
:1032B000C6DE75BF0BFA74BFDD0B74BF471473BF56
:1032C000521372BF080971BF73F56FBF9ED86EBFEE
:1032D00093B26DBF5E836CBF0C4B6BBFA7096ABF17
:1032E0003CBF68BFD86B67BF880F66BF59AA64BF71
:1032F0005A3C63BF97C561BF214660BF05BE5EBF34
:10330000532D5DBF1A945BBF6AF259BF534858BF33
:10331000E59556BF31DB54BF491853BF3D4D51BFF2
:10332000207A4FBF029F4DBFF8BB4BBF12D149BFA0
:1033300065DE47BF03E445BF01E243BF70D841BF2C
:1033400067C73FBFF9AE3DBF3B8F3BBF426839BF48
:10335000233A37BFF30435BFC9C832BFBB8530BF7E
:10336000DE3B2EBF4AEB2BBF159429BF563627BF35
:1033700025D224BF996722BFCBF61FBFD17F1DBFC7
:10338000C6021BBFC07F18BFD9F615BF2A6813BF7E
:10339000CDD310BFDA390EBF6B9A0BBF9BF508BFB8
:1033A000824B06BF3D9C03BFE4E700BF275DFCBE28
:1033B000CBE0F6BEEA5AF1BEBBCBEBBE7533E6BE40
:1033C0004F92E0BE80E8DABE4136D5BECA7BCFBEA2
:1033D00053B9C9BE15EFC3BE491DBEBE2A44B8BE0F
:1033E000EF63B2BED47CACBE128FA6BEE59AA0BE7F
:1033F00086A09ABE32A094BE229A8EBE938E88BEBC
:10340000C07D82BECCCF78BE7F9A6CBE135C60BE9E
:10341000011554BEC2C547BECF6E3BBEA2102FBE23
:10342000B5AB22BE834016BE87CF09BE73B2FABDCC
:103430002FBCE1BD36BDC8BD80B6AFBD04A996BDE9
:10344000752B7BBD2EFB48BD2BC316BDB10AC9BC75
:10345000920E49BC0000008078340010000000206B
:103460003C00000070010010B43400103C0000204B
:103470006C0A00008C010010000000000000000039
:10348000000000000000000000000000000000003C
:103490000048E801000000000000000001010101F7
:1034A0000102030480F0FA0200E1F50580D1F00882
:0434B00000C2EB0B60
:0400000510000135B1
:00000001FF
